:020000022000DC
:1070000000000420757302005D7302005F730200CC
:1070100061730200637302006573020000000000E8
:107020000000000000000000000000006773020084
:1070300069730200000000006B7302006D730200B0
:1070400051A002006F730200A9A6020089AE0200DF
:1070500099AE02006F7302002DA50200F9B802007C
:10706000C1B80200D1B802006F7302006F73020052
:107070006F7302006F7302006F7302006F73020080
:107080006F730200818702006F7302006F7302004A
:107090006F7302006F730200E97E02006F730200DB
:1070A0006F7302006F7302006F7302006F73020050
:1070B0006F7302006F730200000000000000000008
:1070C0006F7302006F7302006F73020019B4020045
:1070D000958702006F7302006F7302006F730200E6
:1070E0006F7302006F7302006F73020000000000F4
:1070F000000000006F730200000000006F730200C8
:10710000000000000000000000000000000000007F
:10711000000000000000000000000000000000006F
:10712000000000000000000000000000000000005F
:10713000000000000000000000000000000000004F
:10714000000000000000000000000000000000003F
:10715000000000000000000000000000000000002F
:10716000000000000000000000000000000000001F
:10717000000000000000000000000000000000000F
:1071800000000000000000000000000000000000FF
:1071900000000000000000000000000000000000EF
:1071A00000000000000000000000000000000000DF
:1071B00000000000000000000000000000000000CF
:1071C00000000000000000000000000000000000BF
:1071D00000000000000000000000000000000000AF
:1071E000000000000000000000000000000000009F
:1071F000000000000000000000000000000000008F
:10720000354936480A1A02D0072291438D4634493F
:1072100034480A1A06D00722914381F309880222D2
:1072200082F3148830483149314A00F044F831483B
:107230003149324A00F03FF831483249324A00F0D1
:107240003AF832483249334A00F035F83248334987
:10725000334A00F030F833483349344A00F02BF811
:1072600033483449344A00F026F83448344900227F
:1072700000F02CF833483449002200F027F8334856
:107280003349091A082902DB002202604160314AB1
:1072900090471F481F49884205D00268043003B454
:1072A000904703BCF7E700208646EC46002000210B
:1072B000294A9047FEE7884207D0521A05D0037842
:1072C00001300B700131013AF9D17047884202D088
:1072D00002700130FAE770470000042000E003204C
:1072E0000000042000000420FCEE030084220020A3
:1072F000D0230020D0730200D0730200FCE1030011
:10730000FCEE0300842200208422002098E2030087
:1073100098E2030098E2030098E2030098E2030079
:1073200098E2030098E2030098E20300FCEE0300F9
:1073300048F00300D0230020D0230020D0230020D9
:10734000343800203438002034380020343800200D
:10735000345800209D730200A1780200FEE7FEE78A
:10736000FEE7FEE7FEE7FEE7FEE7FEE7FEE7FEE7F5
:1073700000F002B8FFF7FCBF0F484FF00701884349
:1073800085460E4880470E48016841F4700101604F
:10739000BFF34F8FBFF36F8FFFF732BF09480A4922
:1073A0000A4A884207D0521A05D0037801300B7080
:1073B0000131013AF9D170470000042081FC02003C
:1073C00088ED00E084E20300702200208422002087
:1073D000074B1B5C1F2B8ABF064A4FF0A04203F0ED
:1073E0001F03D2F80405D840C04300F001007047E5
:1073F00098E2030000030050074B1B5C1F2B86BF65
:10740000064903F01F034FF0A041012202FA03F3E3
:10741000C1F80C35704700BF98E20300000300502C
:10742000074B1B5C1F2B86BF064903F01F034FF061
:10743000A041012202FA03F3C1F80835704700BFEA
:1074400098E203000003005008B50020FFF7E8FFB2
:107450000120FFF7E5FF0220FFF7E2FFBDE808404B
:107460000320FFF7DDBF08B50020FFF7C5FF0120AF
:10747000FFF7C2FF0220FFF7BFFFBDE8084003206F
:10748000FFF7BABF0A4B185C1F288ABF094B4FF0A1
:10749000A04300F01F00D3F804250121814021EA18
:1074A00002000A40C3F80805C3F80C25704700BF66
:1074B00098E203000003005008B5094B1B7853B154
:1074C0000020FFF7ADFF0120FFF7AAFFBDE808404D
:1074D0000320FFF7A5BFBDE80840FFF7B5BF00BF19
:1074E000D0230020F8B57A4C237805461BB1002341
:1074F0002370FFF7E1FF172D00F28780DFE805F02A
:107500000C1717425364757F878C878C94999999CF
:107510009999C3C8D0D8E3E3FFF7CEFF6D4800F0D8
:10752000CFFE6D4B002204461A702046F8BD0020A5
:10753000FFF74EFFF0B10020FFF772FF022D0CBFE6
:107540004FF4E1644FF47A64634B1D7000254FF4EF
:1075500000464FF47A7029464FF4FA620023E4FBA8
:10756000060116F06FF92A460146BDE8F840594871
:1075700000F078BEFFF740FF022D0CBFC8244FF487
:10758000C874E1E70020FFF723FF40B10020FFF7B8
:1075900047FF4FF44874504B03221A70D6E7FFF7A9
:1075A0002BFFC824F7E70020FFF712FF38B10020B7
:1075B000FFF736FF4FF47A64474B0422EDE7FFF7FD
:1075C0001BFF4FF4C874F7E70020FFF701FF48B135
:1075D0000020FFF725FF404B05221A7040F6CD41F1
:1075E0000022C2E7FFF708FFF5E70020FFF74AFF98
:1075F000394B06221A70002240F26661B5E700207E
:10760000FFF7FAFE344B07221A7000248DE70120A1
:107610002070FFF737FFEEE701202070FFF732FF01
:1076200000224FF40051A0E7FFF71DFF2A4B0C2268
:10763000EAE72A482A4E00F043FED5F11105044638
:107640001CD0D8B9012D13D0C820454321464FF492
:1076500000474FF47A704FF4FA620023C5FB07012C
:1076600016F0F0F8224601461C4800F0FBFD0446E7
:107670000220FFF7C1FE0123337056E70220FFF717
:10768000CFFE0023F8E7FFF717FF134B1222BBE7EB
:10769000FFF712FF0020FFF7AFFE0F4B1322B3E7F7
:1076A000FFF70AFF0120FFF7A7FE0B4B1422ABE701
:1076B000FFF702FF0020FFF79FFE0120FFF79CFE6F
:1076C000054B1522A0E7FFF7CEFE034B1D709CE78C
:1076D000E4230020A8220020E523002088220020A7
:1076E000D0230020044B1B6813F0010301D0FFF7E7
:1076F000F9BE1846704700BFE0230020032811D8C8
:10770000012A0AD101290FD100F10E02D2B20D4B8C
:1077100000EB40001A54002070470129F7D00229DD
:1077200004D049B1072070470022F8E7054B00EB71
:10773000400018444270EEE7024B00EB4000184452
:107740008270E8E7D123002008B501220221002041
:10775000FFF7D4FF08B1072810D10722022101202A
:10776000FFF7CCFF08B1072808D100210A220846FC
:10777000FFF7C4FF10B1072808BF002008BD0000B4
:107780000388102B10B502D0112B1ED010BD1A4C3F
:107790002168B1B901220846FFF7B0FF08B10728F8
:1077A00024D1072202210120FFF7A8FF08B10728F2
:1077B0001CD1042202210020FFF7A0FF08B10728F6
:1077C00014D1236801332360E0E70B4A1368013BBF
:1077D0001360002BDAD1FFF7B7FF0028D6D0074B94
:1077E0001B68002BD2D0BDE810401847034B1B6824
:1077F000002BE6D09847E4E7EC230020E8230020A4
:10780000014800F05DBD00BFC822002002480022F0
:10781000102100F027BD00BFC822002008B502F0EB
:107820007DFC18B1BDE8084000F016BC08BD0000A2
:1078300008B513F001FD13F065FC14F079FC14F0A9
:107840006BFD14F08BFE15F03DFD15F0BDFE0F4AEB
:10785000136801330A2B0FD813600D4A13880BB13C
:10786000013B13800B4A13880BB1013B1380BDE829
:107870000840022014F0ECBD0749002313600A6899
:1078800001320A2A98BF13460B60E6E7F423002072
:10789000FA230020F8230020F0230020FFF7C8BFC0
:1078A0002DE9F0478CB014F02DFE15F083FE5548FD
:1078B000554D15F091FE554815F08EFEFFF7AEFFC1
:1078C00015F078FF14F092FC514815F085FE45F054
:1078D00001054FF47A40A8474FF47A40A84702F0D8
:1078E000C7FA852802D008B100F0B6FB002002F0EC
:1078F000E3FA4FF08042D2F81834D903FBD500F0F8
:107900006DFC08B100F0A8FB424A4348012100F099
:1079100097FC08B100F0A0FB002210213F4800F0C6
:10792000A1FC3F4815F058FE13F0B8FA3D4815F099
:1079300053FE13F061FC012013F0D9FC3A4815F016
:107940004BFE15F047FF002848D0384815F044FE9C
:107950004FF4FA644FF47A40A847013CFAD114F08E
:107960009BFB15F0F5FD15F01DF815F04BF913F024
:1079700083FB01A815F0E8FD90B32D48DFF8C4A003
:10798000DFF8C490DFF8C48015F026FE01AD211D9C
:10799000504615F021FE2F46002617F8011B4846D9
:1079A000013615F019FE042EF7D14046013415F0CA
:1079B00013FE0B2C05F10405E9D11E4815F00CFE51
:1079C0001D4815F009FE15F0F5FD13F094FC14F0B8
:1079D00059FD830706D414F061FDF8E71748B5E7B1
:1079E0001748EBE7022014F045FD13F0E7FC14F014
:1079F000A7FB14F057FC14F059FD14F0BBFD14F074
:107A0000D7FFE4E7BDE2030060E40300DCE203002B
:107A1000FCE203009D78020068E40300C822002015
:107A20001BE3030030E3030042E3030058E30300D9
:107A3000ADE30300E0E3030025E4030084E3030077
:107A400002E40300D0E30300DAE3030064EC030084
:107A500010B590B90A4C2378052B05D161602070D0
:107A600002F0A2FB08B1064810BD02F057FB002847
:107A7000F9D000F0F1FA2046F6E70020F4E700BF65
:107A8000E822002073B5FE23037604464176406861
:107A9000217A012516460095022304F118020430CC
:107AA00003F06AFB18B12570284602B070BD60680B
:107AB000217A2B4604F12902043003F073FB10B144
:107AC00002232370F0E794F829303370EDE72DE9B5
:107AD000F34190460246044602F8181F4068217A96
:107AE00001251E4600952B46043003F045FB20B1CE
:107AF0002570284602B0BDE8F0816068217A04F163
:107B0000290710233A46043003F04CFB10B102233E
:107B10002370EEE7B8F1000F01D10020EAE7102E44
:107B200028BF1026B042F8D217F8013B08F8003001
:107B30000130F7E72DE9F04798460378052B064614
:107B40008A46914636D00024047044452CD20AEB74
:107B50000405C5F3071105F00F05C5F11007A8EBE3
:107B600004039F42A8BF1F46FFB20F2F14D8002363
:107B70001A463046FFF7ABFFB0B92935354409EB5B
:107B80000403874202D83C44A4B2DEE715F8012B77
:107B900003F8012B0130F4E7102309EB040230460F
:107BA000FFF795FF0028EED03078003818BF01208D
:107BB000BDE8F0870120FBE7F0B585B004460D462F
:107BC000102B4FF000016FF0180705768DF80F109D
:107BD00028BF1023013A19303F1B3E18B342194603
:107BE00011D804F1180200230F2911D96068217AF5
:107BF000002300930430112303F0BEFA58B1012092
:107C0000207005B0F0BD12F8011F00F8011BE4E779
:107C100001315354E8E70835EDB2032D04D820783C
:107C2000003818BF0120ECE70325052013F072FA95
:107C30000DF10F0206212046FFF724FF0028EED1A8
:107C4000013D04D09DF80F309B07EED4E7E70323F6
:107C50002370E4E72DE9F74F98460378052B054696
:107C60008A46914644D0834600240BF8294B44456C
:107C700017D20AEB0406C6F3071106F00F06C6F189
:107C80001007A8EB04039F42A8BF1F46FFB20F2FA7
:107C90002AD800231A4628460191FFF718FF0199B8
:107CA00030B12878003818BF012003B0BDE8F08F4C
:107CB00019B916B12B7A85F82930293609EB040257
:107CC0002E4400239F4209D810235A462846FFF726
:107CD00073FF0028E5D13C44A4B2C8E712F8010BB9
:107CE00006F8010B0133EDE7102309EB0402EDE781
:107CF0000120DAE710DF704711DF704713B5044643
:107D00000949684602F04EF8019808B902B010BD62
:107D1000D0E900212046904718B1684602F04CF89F
:107D2000F2E71120F2E700BF70E4030013B5044648
:107D30000749684602F036F8019B0BB902B010BD46
:107D40002046D3E900219047684602F035F8F3E772
:107D500088E40300084B9A6822B11A6822F4800272
:107D60001A607047054B4FF48002C3F88020BFF3C0
:107D70004F8FBFF36F8F70478C24002000E100E02D
:107D80000B4991F816335A09EC231341DB0706D54A
:107D9000084B9A683AB94FF480030B60704742F27F
:107DA000020000F059B91A6842F480021A60704764
:107DB00000E100E08C240020F7B5194F3C7864BB4B
:107DC000184E012520463570FFF798FF112821D065
:107DD0002046FFF7ABFF144B8DF803401868019065
:107DE0000DF1030000F076FB104901A8FFF782FFB8
:107DF0000446B0FA80F0400938709DF8030000F0A6
:107E00008DFB3CB90A4B34701C70FFF7B9FF284654
:107E1000FFF78CFF204603B0F0BD0824FAE700BF4F
:107E2000FD230020FC2300206CE403007580020089
:107E3000FE230020F7B5154F3B781BB3144E0120ED
:107E40003070FFF75BFF11284FF000051CD00220B7
:107E5000FFF76CFF0DF107008DF8075000F03AFBBB
:107E6000FFF74AFF04469DF807003D7000F056FBFF
:107E70002CB903203470FFF76DFFFFF757FF204642
:107E800003B0F0BD0824FAE72C46F8E7FD230020F4
:107E9000FC230020054B1B7833B1054B1B780BB13D
:107EA000FFF7C8BFFFF788BF08207047FC230020FA
:107EB000FD230020014B1878704700BFFD230020F0
:107EC00007B50849684601F06DFF019B13B903B07F
:107ED0005DF804FBD3E900209047684601F06CFF91
:107EE000F3E700BF7CE40300FFF7EABF60DF704701
:107EF00069DF704761DF704730B5134B1B7891B075
:107F0000FBB1124D34240DF1020103A8ADF802407B
:107F1000FFF7F0FF70B9294601A801F043FF029B6B
:107F2000002BF0D003A8D3E90021904701A801F06D
:107F300043FFF4E7052804D011B0BDE8304000F05D
:107F40008BB811B030BD00BFFF23002094E40300C4
:107F50007FB505460C4600294DD0284B0B600C22FE
:107F6000002101A815F0CAFD012606232268ADF8FC
:107F7000083001A920208DF804508DF80660FFF725
:107F8000B7FF0C22002101A815F0B8FD00252268DA
:107F90008DF8056001A94020ADF80650FFF7A8FF55
:107FA0000C22294601A815F0A9FD22688DF804606D
:107FB00001A93046FFF79CFF0C22294601A815F0C5
:107FC0009DFD4FF4B0632268019301A9A120FFF742
:107FD0008FFF0C22294601A815F090FD9DF8043072
:107FE0002268334301A9A0208DF80430FFF780FFF9
:107FF000284604B070BD0E20FBE700BF70220020B1
:1080000008B5FFF773FF10B9014B01221A7008BDC4
:10801000FF2300204BDF70471FB50E4C01A8FFF770
:10802000F9FF70B9214602A801F0BCFE039B002BAA
:10803000F4D00198D3E90021904702A801F0BCFEDA
:10804000F4E7052804D004B0BDE8104000F004B8FF
:1080500004B010BDA0E403001FB50021039001AAE5
:1080600044F20100CDE9011100F004F805B05DF81B
:1080700004FB000072B6094BD3F8F020D20700D5FC
:1080800000BEBFF34F8FD968054A01F4E0610A438F
:10809000DA60BFF34F8F00BFFDE700BF00ED00E0E7
:1080A0000400FA0510B5D0E90243D1E90202A0426A
:1080B00072EB03032CBF0120002010BD08B50A4855
:1080C00000F047FB094AD2E90031C018084BD3E958
:1080D000002341F10001904271EB030303D210F140
:1080E000807041F1000108BD2423002008240020F5
:1080F0008024002037B505460C460A4801A901F046
:10810000F2FA60B10570446001A9064801F015FB60
:1081100018B1054800F022FB002003B030BD042058
:10812000FBE700BF6C24002024230020294B73B5FB
:108130001E7804461EB90026304602B070BD0028E5
:10814000F9D0FFF7BBFFD4E902239042994139D31C
:1081500000230DF107008DF8073000F0BBF923690B
:108160002BB94FF0FF324FF0FF33C4E902239DF8E3
:10817000070000F0D3F9D4E90530984700250DF148
:1081800007008DF8075000F0A5F92369C3B1D4E9C1
:108190000212B2F1FF3F08BFB1F1FF3F05D05B18FB
:1081A00042F10002C4E9023235469DF8070000F0B2
:1081B000B5F9002DBFD00848214601F009FEBBE704
:1081C0001D46F2E7B3F1FF3F08BFB2F1FF3FB2D067
:1081D000F1E700BF10240020B0E4030013B5114BF9
:1081E00011491868019008231048582201F046FAF6
:1081F000044698B90E4A0F4801A900F0B3F90446A5
:1082000060B90C48012100F087FA01230A4A0948A5
:10821000194600F0E9F9094B01221A70204602B014
:1082200010BD00BFACE40300142400206C24002027
:108230001D83020024230020FFFF7F001024002064
:1082400030B56AB103684FF0FF344FF0FF355A6123
:108250004A1E5142C3E9024551411961002030BD17
:108260000720FCE7F7B5044600250DF10700174687
:108270000E468DF8075000F02DF9D4E90223B3F132
:10828000FF3F08BFB2F1FF3F07D1FFF717FF3018DC
:1082900041F10001C4E9020101259DF8070000F049
:1082A0003DF955B12369A76103B12661214600203C
:1082B00003B0BDE8F040FFF71DBF284603B0F0BD96
:1082C00037B5054600240DF107008DF8074000F092
:1082D00001F9D5E90223B3F1FF3F08BFB2F1FF3F37
:1082E0001FBF4FF0FF324FF0FF33C5E902230124D7
:1082F0009DF8070000F012F934B12946012003B0BF
:10830000BDE83040FFF7F6BE204603B030BD0000A8
:10831000014800F01EBA00BF242300202DE9F743D6
:10832000064600F001FA40B1624AD2E9003113F189
:10833000807341F10001C2E900310021304600F0B4
:1083400002FA38B15C4C236823B12068FFF7EEFED7
:10835000002323600121304600F0F5F920B1FFF73A
:10836000ADFE564BC3E900015548534C01A901F03D
:10837000F4F94FF0FF384FF0FF39A0B9DFF844812E
:108380004D4D404601F03AFD002800F08580D0E9CF
:108390000223B3F1FF3F08BFB2F1FF3F32D14046A5
:1083A00001F026FDEDE70378012B20D0022B08D148
:1083B000444D284601F01CFD002877D0C0E9028911
:1083C000F7E75BB94168D1E90223B3F1FF3F08BF8A
:1083D000B2F1FF3F02D03B4801F0FAFC01A9384856
:1083E00001F0E6F901A9364801F0B7F9C5E741689F
:1083F0002368994202D100232360EFE7314801F05E
:1084000000FDEBE7296891B12968D1E902018242B8
:108410008B412FD22B68D3E90223B3F1FF3F08BF72
:10842000B2F1FF3F03D02968404601F0D1FC40463D
:1084300001F0DEFCD0E902490746FFF73FFE201AB3
:1084400069EB0109012879F1000318DBB0F5350F5C
:1084500013D3FFF75DFF1C4A02441C484FF49603F8
:10846000002100F0E1F890B92B6813B9304600F014
:10847000B3F82F6003B0BDE8F0832246EDE7134860
:10848000002100F056F93846FFF750FE01E00D28B4
:10849000F9D000232B6074E7074B1B68002BE9D150
:1084A000304603B0BDE8F04300F09AB8084B012213
:1084B0001A7093E7082400208824002080240020DC
:1084C0006C240020B0E40300FFFFB400242300204C
:1084D0001024002070B5EFF3108672B60C4A946831
:1084E00001239CB993600B4B0B4DD3F880102940AE
:1084F0001160C3F88050D3F8841051604FF0FF3200
:10850000C3F88420047006B962B670BD0370FAE740
:108510008C24002000E100E0FC06FFBD084B9A68B7
:1085200010B55AB150B9EFF3108172B6054A1C6804
:1085300014605C685460986001B962B610BD00BFF9
:108540008C24002000E100E0435882B03BB10023BE
:10855000435043580193019B012002B070471846D5
:10856000FBE7000070B5184C4379184D44F8232000
:1085700005EBC3031B792BBB03680A88C3F80825E6
:1085800090F904408B7802795B01002CDBB214DB9C
:108590000F490E1986F800330123640902F01F0207
:1085A00003FA02F241F82420437905EBC3020121CA
:1085B00045F833001171002070BD064902F00F022A
:1085C0008B54F1E70820F7E7A82400209824002026
:1085D00000E100E014ED00E0036801221A6070473A
:1085E000036801225A60704773B501F15005AD0070
:1085F0000068ADB24FF480348C400026C0F80843C8
:10860000C0F84843465101F5A8714559019522F03B
:108610007F42019D40F82120C0F844430BB1C0F8CF
:10862000044302B070BD00002DE9F74F0D4622F063
:108630007F4402684FF4803705F150068F40804632
:10864000B60002EB8500C2F84873B6B2C2F80873F0
:10865000D2F8041599464FF0000BD0F84035C0F819
:10866000401542F806B05B1A9259009223F07F43FE
:10867000012B009A4FEA850A0CD1264B4FF48060FB
:1086800043F001039847D8F8003043F806B09B59EF
:108690000193019BD8F80010D1F80465C1F8447328
:1086A000A31B23F07F43012B1CD11A4B05F5A875A2
:1086B000013443F0010341F825404FF480609847AE
:1086C000D8F80030D3F804359E4209D1D8F80030EC
:1086D0000020C3F84473C3F8047303B0BDE8F08FFF
:1086E0000D20FAE78A44C9F1FF13CAF84045D1F8D2
:1086F0000405221A013A22F07F4203F57F43934298
:10870000EED3002AE2D10134CAF84045D1F804354D
:108710009842DAE7C0E4030003680222C3F8442366
:1087200009B1C3F80423704700684FF48271FFF762
:108730000BBF4FF4803303FA01F10368C3F8481309
:10874000C3F80813704750318900006889B2FFF7F9
:10875000FBBE0368D3F804057047000090F90430AD
:10876000002B09DB5A09012103F01F0301FA03F36F
:108770004032024941F82230704700BF00E100E07A
:10878000024B034A1B681068184700BFA82400204A
:1087900098240020024B034A5B689068184700BF8A
:1087A000A82400209824002070B5064D0646002419
:1087B00055F8043B0BB1304698470134042CF7D1EF
:1087C00070BD00BFBC2400204388033300EB83034B
:1087D00099420BD382884FF6FF739A4208D00388E0
:1087E00033B18068431C584258417047022070479B
:1087F00001207047033080B240F2FE33984230B51A
:108800001FD8134B1A783AB91C895D892C4404444B
:10881000A4B2B4F5806F0AD91A7DAAB99A8BDC8B01
:108820002244024492B2B2F5806F0DD801220A8030
:108830001446142202FB04335A8910445881002044
:1088400030BD48F20860FBE748F20660F8E700BF79
:10885000F02400200B4A0C495388142000FB03111C
:10886000CB6833B90420496810700122074801F031
:1088700098B807490523137002238B8001220968E9
:108880000023F3E7D4240020F024002070220020ED
:10889000B825002007B5002305490093054A09685B
:1088A0000548082301F04FF803B05DF804FB00BF52
:1088B000B8250020D4E403007022002007B500236F
:1088C00001460093034A0448082301F03CF803B032
:1088D0005DF804FBCCE403007022002013B50023F4
:1088E0000C4600930146084A0848042301F02BF87F
:1088F00038B9074B142101FB043101230B7402B07A
:1089000010BD48F20D60FAE7C8E4030070220020B1
:10891000F024002037B50A480A4B42689C88196841
:1089200053880325033305709BB2002000909B0001
:1089300001EB8401044801F006F803B030BD00BF2C
:10894000D4240020B82500207022002010B5014654
:10895000044800F0C8FE1C220446002115F0CEF8A1
:10896000204610BDA425002068B10268084B9A4239
:1089700009D14068074B984207D00133984214BF91
:10898000032001207047032070470020704700BF7C
:10899000DEC0ADDEFE011EF12DE9F0410D460223E1
:1089A000154F2B80164600F5805100F108044FF05A
:1089B00001088C420ED2236801330BD02046FFF70A
:1089C00003FF48B10EB186F80080022809D14FF4A8
:1089D00080632B80BDE8F081A3683A68934200D998
:1089E0003B602B886288033313442B8063880333F6
:1089F00004EB8304DDE700BFE824002038B5144B06
:108A000014220D4602FB00302B68446804F58051A7
:108A1000A3B15C88033403EB84048C4215D2236831
:108A2000013312D02046FFF7CFFE012808D00228DC
:108A30000BD00028F1D12C60012038BD0834ECE7C0
:108A40006388033304EB8304E7E70020F5E700BF06
:108A5000F0240020426873B504460D466AB3234BE8
:108A6000D9688A4229D31B699A4226D812F0030397
:108A700023D11F490089098988421ED12068916845
:108A800088421AD11B4841688A4203D901F58051B6
:108A90008A420DD381698A420CD901F580518A42FC
:108AA00008D201222A80B3FA83F0400902B070BDD7
:108AB0001A46F7E748F20963F5E700262E8001968B
:108AC000288801A9FFF79AFF30B92B8801339BB2A0
:108AD000012B2B80F3D9E9E7019B22689968914229
:108AE000EED16360024B1B892381DFE770220020F7
:108AF000D4240020F02400202DE9F8431C461D4B0F
:108B00001B7806460F46154673B382B37CB3DFF875
:108B10006C804FF01409A388012B02D948F2096038
:108B200020E009FB03F318F803302BB9A088214695
:108B3000FFF764FF20B92060A3880133A380EAE730
:108B400023681EB1998832889142EFD11FB11988EC
:108B50003A889142EAD19A68C5E90023064B1B89FD
:108B60002B810020BDE8F88348F20160FAE748F263
:108B70000460F7E7CC240020D4240020F024002057
:108B800008B5074B5888191DFFF738FF18B1BDE825
:108B90000840FFF7BFBEBDE80840FFF75BBE00BF5F
:108BA000D42400202DE9F0479F4FDFF8A08288B041
:108BB00006463B6823B99D48414600F0CEFD38602B
:108BC0003D6829784B1E052B07D8DFE813F02000FD
:108BD00074007400060106015E0148F20E6414225E
:108BE000002103A814F08AFF41F61D539C4208BFE0
:108BF00000243B6804941A78023A042A00F2FC81AB
:108C0000DFE812F0DD01E9010B0213021A022EB1B6
:108C1000874B00225A604FF40644E0E72B79032B80
:108C20001CD8DFE803F014022A35824A1378022B9D
:108C30001AD0137D022B4FF0010317D114214B439F
:108C4000D1180020D0544868FFF738FE03E0012314
:108C50002B71FFF71FFE002800F0B980744B002233
:108C60005A6048F20D64BAE70023E7E7704A1370D0
:108C70000023536041F61D54B1E76F496F4800234C
:108C800002222B718A800968012200F08AFEE2E745
:108C90006B4B684C5B88684A14214B43E1180026F3
:108CA0002E714D6810681560958848600D8102210D
:108CB000E6549180C8E7B5F814A0AA7DDFF8749156
:108CC000AEB1022AEB8806D9142101FB0A91DA1C05
:108CD000088902440A81142202FB0A99C3F57F43E2
:108CE000B9F80A20FD331344A9F80A3093E7142396
:108CF00003FB0A9318895C6804EB8004062A69D890
:108D0000DFE802F0274E36441D5A040041F61D5498
:108D1000AA7DEB88022A06D9142101FB0A91DA1CEC
:108D2000088902440A81142202FB0A99C3F57F4391
:108D3000B9F80A20FD331344A9F80A304FE7414837
:108D4000414900234360AB690360FFF783FE0028BD
:108D50005BD00223AB75002300930423EA1821465D
:108D6000364800F0F0FD002831D048F20D64CFE71E
:108D70002B69002B14BF03230123AB750023009341
:108D800005F10C02042304F10801E9E70123AB75A6
:108D90000022EB8800922A699B0004F10C01DFE7B6
:108DA00003290CBF05230623AB750023009304237E
:108DB00005F10802E118D3E70623AB75224B1988A9
:108DC000204B5868FFF78AFD04460028A0D108B060
:108DD000BDE8F08748F20E649AE7002E7FF41BAFDF
:108DE0002B79012B34D0022B3FF444AF002B7FF4BE
:108DF000F4AE02232B710DF10A01EB68039303A873
:108E0000CDE90466FFF726FE10B948F20964E6E6EC
:108E10000498BDF80A108388EB8003882B81FFF744
:108E20005DFD044627E000BFEC240020A4250020BF
:108E3000CC240020F0240020B8250020702200203F
:108E4000D4240020B0240020C4250020E4240020E5
:108E50007B4B03AA3146A81DFFF74EFE784B044614
:108E600068B999880498FFF739FD044648F2096308
:108E70009C423FF4FFAE002C7FF4B1AEA7E708227E
:108E80003146184614F03AFEF0E7002E7FF4C3AEE8
:108E90006C4B1A7BB2B11E731A78013A062A3FF660
:108EA0009CAE01A151F822F0538F0200798F02008D
:108EB000978F02009D8F0200DB8B0200A38F0200C0
:108EC000B58F02001A78072AE6D801A151F822F0DE
:108ED000F18E0200998E0200998E0200178F020017
:108EE0002B8F02004F8F02004F8F0200138F020062
:108EF0001A89554901321A8100225A801A730A7858
:108F0000B2FA82F252099A720A7DB2FA82F25209D8
:108F1000DA72012207E04D4958688A884088033296
:108F200002448A8002221A70B6E75C88464A4749A2
:108F3000142505FB04220868546850608888108155
:108F400002200C608880002111740622EBE70722C2
:108F5000E9E79A7A32B9DA7A8AB900221A705A8025
:108F60005A6087E6384900229A72CA68002AF2D10C
:108F7000097C0029EFD05A80FFF702FE51E700225A
:108F8000DA72314A116A0029E7D192F82420002AC6
:108F9000E3D00122EFE7FFF7BDFC42E7FFF75AFC01
:108FA0003FE75A88284B142101FB02335868FFF72A
:108FB00085FC36E700225A60FFF76CFC31E701229E
:108FC0008DF80C201A89ADF818209A88DB68ADF866
:108FD0001A20059310E002228DF80C201A89ADF8B2
:108FE00018209A88ADF81A20DA689B7D05929A1F9E
:108FF000534253418DF81C3003A8FFF7D5FB0026E0
:10900000414613483E6000F0D3FB1248012100F0B6
:109010007DFC00287FF4CDADD9E603228DF80C202D
:10902000DA88ADF818201A89D0E704228DF80C20D0
:10903000DB88ADF81830DFE705238DF80C30DBE76F
:10904000C8250020D4240020F0240020B8250020CA
:10905000A4250020B42500204068FFF7A3BD000030
:1090600008B50548012100F039FC18B9BDE80840F1
:10907000FFF798BD08BD00BFB42500202DE9F341DE
:109080009846374B1B7806460D46002B5CD00029CE
:109090005DD009884FF6FF7399425BD06B88002B37
:1090A00058D06B689B0758D14AB92F890DF102013E
:1090B0003846FFF79FFB30B102B0BDE8F08113885E
:1090C0005788ADF8023001A8FFF740FC044660B9AC
:1090D000BDF80220234B142101FB023358890338C9
:1090E000C01B588148F20760E6E780F80080002343
:1090F0008375BDF8023083826B68036101211A48D1
:1091000000F0F8FB2B882381B8F1030F6B88A38054
:1091100004BF0423A3754FF0000508BF3368E06067
:1091200008BFA3611148E780658101A900F005FB34
:1091300036B1E36833600E4B75601B89B5723381BD
:10914000FFF78EFF0020B7E748F20160B4E748F26E
:109150000460B1E748F20360AEE748F20260ABE7B3
:10916000CC240020F0240020E8240020A4250020A6
:10917000D424002008B5034607480268042A08D012
:109180000168064A42F82130012100F0B3FB0020BB
:1091900008BD48F20B60FBE7C0250020BC2400207E
:1091A0002DE9F04FDFF8208289B01422002103A8B6
:1091B00014F0A4FC98F8003003F0FF0200923BB1D9
:1091C00003A8FFF7F1FA0027384609B0BDE8F08F91
:1091D00008F1040000F0A6FB0028F4D1009BDFF8A2
:1091E000ECA1D3F8F83F5C1C08BF4FF010234FF000
:1091F000805208BF5B6911695269581C08BF02FBA5
:1092000001F3CAF810306949A3F5405300225046D3
:10921000CAF80C3000F089FB07460028D4D11C2383
:1092200063496448DFF8A8B18C2200F027FA0323D1
:10923000B9463D4601933C46DAF80C604E44304650
:10924000FFF792FB012867D0032817D000283DD1F3
:1092500059494FF0140C0CFB04FC01EB0C0201F813
:109260000C0056600CF110020CF1080C0A44304658
:109270006144FFF791FB45F002054AE03268531C58
:1092800002D04E4B9A4239D1321D06F580511068FA
:10929000013033D104329142F9D1DBF800203AB9E0
:1092A00002220123CBF80060ABF8042000930BE00E
:1092B00014226243404B022099189854404A4E6051
:1092C000548001340881A4B245F0010509F58059A4
:1092D000B9F5405FB0D1019B012B98BF0025EDB2DD
:1092E000022D03D0062D36D0002D3ED1002388F864
:1092F000003048F20A67C8F8043065E7019B2E4940
:109300005A1E93B2142262438818019346600320C8
:1093100088540134A4B2D9E7009B6BB1264B1422C8
:109320006243991802209854DBF800204A60244ACE
:10933000088154800134A4B200222249CBF8006095
:109340003046FFF729FBBBF80420022A0CBF042299
:1093500008221543BAE7012388F8003003A8002348
:10936000C8F80430FFF720FA2EE702A8FFF7EEFA5C
:10937000C8B10123013D03700A2D09D8DFE805F0CB
:1093800006080608070807080F110F0000230371DD
:1093900002A9084800F0D1F9FFF762FE14E70323A1
:1093A000F5E70223F3E748F207670DE7E8E4030077
:1093B00018250020A4250020F0240020DEC0ADDE0A
:1093C000D4240020BC250020CC24002070220020C2
:1093D000B825002073B50D460446C8B1C1B10DF1E2
:1093E0000601FFF737FBB0B1BDF806300B486668E1
:1093F000142202FB030001210C3000F07BFA6368A9
:109400002E600C336B600123A372002002B070BD8C
:1094100048F20460FAE748F20960F7E7F024002018
:1094200013B50446A8B10DF10601FFF713FB98B17F
:10943000BDF806200B4B142101FB0233DA6872B130
:10944000A27A62B1DA680020013ADA60A07202B052
:1094500010BD48F20460FAE748F20960F7E748F205
:109460000560F4E7F024002002230022FFF706BE87
:1094700018B103230022FFF701BE48F204607047D1
:10948000114B1B7813B50446ABB14FF6FF739842EE
:1094900014D001A8FFF75AFA98B1052303700123ED
:1094A0000371C48001A9094800F047F9FFF7D8FD0E
:1094B000002002B010BD48F20160FAE748F20360F4
:1094C000F7E748F20760F4E7CC240020A425002049
:1094D0000F4B1B7807B5A3B101A8FFF737FA98B176
:1094E0000623037001A90B4800F027F90A4B1A78EC
:1094F0000AB101221A73FFF7B3FD002003B05DF833
:1095000004FB48F20160F9E748F20760F6E700BFA4
:10951000CC240020A4250020D424002007B5ADF8D9
:109520000600ADF804100DF1060001A9FFF7E4FAFA
:1095300003B05DF804FB07B51346ADF806000A4614
:1095400000200DF10601FFF7D7FA03B05DF804FB28
:1095500007B51346ADF806000A460DF106000021D6
:10956000FFF7CAFA03B05DF804FB20B119B1036834
:109570000B600020704748F2046070472DE9F84FF7
:109580003C4B1B780446002B6DD000286ED0DFF8D2
:10959000E8901222002114F0B1FA032323804FF047
:1095A000000A4F4614264FF00108D9F80410B9F804
:1095B0000AB0B9F808500846FFF7D6F9032808BFE3
:1095C0002388628804BF03F1FF33238006FB0A73FC
:1095D0005D44DB681344638023899B446389A4F85A
:1095E00008B0ADB22B446381C5F58065A389ADB2E7
:1095F000AB4238BFA58101F1080501F58051A942B0
:1096000029D92B68013326D02846FFF7DDF8012839
:109610000AD0022815D00028F1D1A3880133A380F5
:109620000AE04FF0010AC0E7E3880133E380E389F1
:109630006A8803331344E3816B88033305EB8305A6
:10964000DDE7E38884F810804D1BE189013301EBED
:10965000A501E380E18109F11409BAF1000FE0D01E
:109660000020BDE8F88F48F20160FAE748F2046094
:10967000F7E700BFCC240020F024002010B561B132
:10968000B2FBF3F403FB1424A4B244B9C0E9001400
:1096900084608281C381204610BD0E20FCE7092032
:1096A000FAE782B050E8022FC188B2EB324F4FF098
:1096B000000317BF92B241EA014142EA014104E0CE
:1096C0004268B2EB324F08BF012340E80212002A81
:1096D000E8D18DF807309DF80730002B0CBF112022
:1096E000002002B0704737B550E8013F9DB2C489F1
:1096F00025448489A54228BF2D1B0489A54202BFA9
:10970000BFF32F8F002207E0C5EA030540E80154AC
:10971000002CE9D14FF001028DF803200193019A4A
:109720000A609DF8031001F0FF0321B1006810FAF0
:1097300082F003B030BD1846FBE70A884B889A4296
:1097400009D150E8012FC2EA024240E80123002B70
:10975000F7D1012070470020704737B550E8023F2D
:109760001FFAA3F5C488A54202BFBFF32F8F0022C2
:109770000DE0C48925448489A54228BF2D1BC3EA76
:10978000054540E80254002CE8D14FF001028DF865
:1097900003200193019A0A609DF8031001F0FF0372
:1097A00021B1006800EB124003B030BD1846FBE762
:1097B0000A884B889A4209D150E8022FC2EA224215
:1097C00040E80223002BF7D10120704700207047AA
:1097D00001F01F024B090121914000EB830000F0D2
:1097E00065B84B0910B501F01F040121A14000EB41
:1097F000830000F04FF8E04000F0010010BD01F0E0
:109800001F0301229A404B0900EB8300D14300F073
:1098100059B84B0901F01F0150F82300C84000F06F
:10982000010070472DE9F0474F1E7F0980460E4624
:109830000137002558F8254008EB8509E44394FAE0
:10984000A4F4B4FA84F44FEA451A202C06D1013569
:10985000AF42EFD834462046BDE8F0875444A642D4
:10986000F5D921464046FFF7BCFF0028F3D0D9F8D0
:109870000040E44394FAA4F4B4FA84F4E5E710B5A4
:10988000034653E8000F0A4643E8002494F0000F13
:10989000F7D110BD10B5034653E8000F40EA0102AE
:1098A00043E8002494F0000FF6D110BD10B5034634
:1098B00053E8002F42EA010043E8000494F0000F4F
:1098C000F6D110BD10B5034653E8002F02EA01009F
:1098D00043E8000494F0000FF6D110BD10B5034624
:1098E00053E8000F00EB010243E8002494F0000F5E
:1098F000F6D110BD10B5034653E8002F02EB01006E
:1099000043E8000494F0000FF6D110BD10B50346F3
:1099100053E8002FA2EB010043E8000494F0000F8D
:10992000F6D110BD0121FFF7B5BF0B4610B41146AB
:1099300028B123B103605DF8044B1B6818470E2063
:109940005DF8044B70472DE9F04308B302B3D0F83B
:1099500000E0BEF1000F1ED0FBB14568D5F80490C1
:10996000B3FBF9F509FB1535BDB942EA010C1CF052
:10997000030F14D1C568A94211D34D1EEC18056917
:10998000AC420CD8DEF80C40A446BDE8F04360477A
:109990000E20BDE8F0830820FBE70920F9E710203E
:1099A000F7E7F0B5D8B1D0F800C0BCF1000F18D07F
:1099B000CAB14568D5F800E00EF1FF350D4214D16B
:1099C000C568A94211D34D1E0EFB02540569AC4275
:1099D0000BD8DCF81040A446BDE8F04060470E20EC
:1099E000F0BD0820FCE70920FAE71020F8E729DF9E
:1099F000704728DF704770B503689E6886B00446DC
:109A00000D466EB114220021684614F077F8A36861
:109A10000593237901952BB1012B0DD06846B047F2
:109A200006B070BD01238DF8003023690293E3680E
:109A3000039363690493F1E702238DF80030E36830
:109A40001B030293F5E708467047002070470000AB
:109A5000024B187A003818BF012070476C2600208E
:109A6000034B187A0122B0FA80F05A74400970470B
:109A70006C26002008B510461A4614F016F800208F
:109A800008BD000008B514220021044814F036F87F
:109A90000348FFF706FE002008BD00BF6C2600202B
:109AA0005C26002010B5094C094B43602046FFF7A7
:109AB00039FF40B9FEF7FEF9064920741C23064819
:109AC0008C22FFF7DBFD002010BD00BF6C260020BC
:109AD000DCE40300D02500205C26002038B5234DAF
:109AE000234C2B7A3BB923492348FFF736FE2060ED
:109AF00008B9686038BD022324682B72237973B1DA
:109B0000012B24D020460321FFF775FF00232B7281
:109B10006B6018491848BDE83840FFF749BED4E9E2
:109B20000523D21AB2F5805FD4E9031028BF4FF4A1
:109B300080529208012A38BF012219441844FFF7C5
:109B400056FF50B11128DDD101232B72D2E7D4E9A1
:109B500003031844FFF74DFFF3E72B7C002BC9D11B
:109B6000BDE83840022000F009B800BF6C26002094
:109B700084260020802600205C26002038B5234C57
:109B8000237A002B41D0022B09D1032830D0204B5F
:109B900000221B68E2601A793AB1012A22D0637C64
:109BA0007BBBBDE83840FFF799BFD3E905128D1A9A
:109BB000B5F5805F94BF521902F580529A619142C7
:109BC000EDD102284FF0000308BF19462372104B55
:109BD00018BF0D211868FFF70EFF0E490E48FFF75A
:109BE000E7FDDCE71A6901321A615B699A42E7E72F
:109BF000E3680133082B01D8E360D0E70023E3607A
:109C0000DFE7BDE83840FEF745B938BD6C260020D7
:109C100084260020802600205C260020831E012B45
:109C200001D8FFF7ABBF704700F0FD03012B08D14F
:109C3000044B00225A74421E504250411874FFF7E0
:109C40004DBF70476C26002010B5064C201DFFF755
:109C500069FE28B9637C1BB9BDE81040FFF73EBF21
:109C600010BD00BF6C2600202DE9F34180460D4653
:109C70000F4801A916461F46FFF735FD0446A8B157
:109C80001C22002113F03AFF2D0B0123237101A99F
:109C90000748C4F80080A760E5606661FFF74DFDE6
:109CA000FFF7D2FF002002B0BDE8F0810420FAE700
:109CB0005C2600202DE9F74381468846104801A91B
:109CC00017461E46FFF70FFD0446B0B11C220021C7
:109CD00013F014FF00250A9BA36001A9C4E90378CF
:109CE00007482571C4F800906661FFF726FDFFF76D
:109CF000ABFF284603B0BDE8F0830420FAE700BFBD
:109D00005C26002033DF704770B5204D04460121EA
:109D10002846FFF7B4FDBFF35F8F38B9042C0AD093
:109D20001B4B1A781AB1BFF35F8F286070BD194AB8
:109D3000147001221A70184C164E636830787BB983
:109D40000238012814D8BFF34F8F1449144BCA6846
:109D500002F4E0621343CB60BFF34F8F00BFFDE717
:109D60001B6898470028DED0204600F025F8E4E77D
:109D7000FEF7A0F808B1FFF7C5FF4FF080430122BE
:109D8000C3F80025BFF34F8F20BFFDE794260020C6
:109D900091260020902600208826002000ED00E07B
:109DA0000400FA050B684A684360934208BF002329
:109DB000016008BF43607047436843B1026891681F
:109DC00052680B449342436004BF002343607047D2
:109DD00070B5446806460D46206818B1B368294638
:109DE000984718B923682B60256070BD2468F3E795
:109DF0004368186808B102681A60704743681868B9
:109E000070474368186800B97047884203D10268F8
:109E10001A600120704703460068F4E738B5074C24
:109E2000051E04F1080318BF1C4623682BB11A68ED
:109E300022605B6828469847F7E738BDA0260020D7
:109E400020B9054B01225A70FFF7E8BF012802D163
:109E5000014A9070F8E770479826002020B9034B1C
:109E600001225A70FFF7DABF704700BF9826002022
:109E700038B50E4C2378B3B90D486360A3602361F5
:109E8000E36000F0A9F80546FEF714F808B900F001
:109E9000AFF801232370074BD3F800340BB1012333
:109EA000A370284638BD8525F5E700BF9826002019
:109EB000419E02000000014037B5184CA3780546CA
:109EC00003F0FF029BB110B14368012098470023C3
:109ED0000DF107008DF80730FEF7FCFAE3689DF8F6
:109EE00007000133E360FEF719FB03B030BD0DF14D
:109EF00007008DF80720FEF7EDFA25B12269134619
:109F00003BB92A602561E368002BE7D100F082F8B5
:109F1000E4E79D42F7D01B68F2E700BF98260020D7
:109F200037B50D4C00230DF107008DF80730FEF713
:109F3000D1FAE368013BE360E36833B9074BD3F838
:109F4000005415B900F073F8A5709DF80700FEF7EE
:109F5000E5FA03B030BD00BF9826002000000140A4
:109F6000012813B50CD0032820D038B9134B012297
:109F7000C3F88020BFF34F8FBFF36F8F02B010BDC7
:109F80000F4C00230DF107008DF80730FEF7A2FA01
:109F900023780BB9FFF76CFFE3689DF807000133E6
:109FA000E3600123A370FEF7B9FAE7E700F020F8B9
:109FB00002B0BDE81040FFF7B3BF00BF00E100E012
:109FC0009826002000F18040002382B003600368DF
:109FD0000193019B02B07047044A137923B9012110
:109FE000106091801846704785207047AC2600208D
:109FF000074B1A68D20704D4C02283F80023012239
:10A000001A604FF080430122C3F81825704700BF43
:10A0100000E100E008B54FF48270FFF7D3FF4FF086
:10A0200080430222C3F8042301229A6008BD4FF046
:10A03000804208B50223C2F808334FF48270FFF75C
:10A04000C1FF0123D360D2F81834DB03FBD408BD71
:10A050004FF0804110B5D1F8003163B14FF48070FA
:10A06000FFF7B0FF0D4B58790122C1F8082310B952
:10A070005A711B6898474FF08042D2F8043163B19F
:10A080004FF48270FFF79EFF0223C2F80833034BA0
:10A09000BDE810401B680120184710BDAC26002009
:10A0A00000F1804000F5C040002382B003600368E7
:10A0B0000193019B02B0704703681F2B83BF03F01D
:10A0C0001F03036001484FF0A04070470003005099
:10A0D00007B5019001A8FFF7EFFF019B00EB83009C
:10A0E000D0F8003723F44033C0F80037D0F80037F9
:10A0F00043EA0141C0F8001703B05DF804FB00001B
:10A10000054B4FF0FF32072843F8202084BFC018CA
:10A1100080F85820704700BFB426002038B51E4C88
:10A1200094F86A30ABBB4FF6FF71FF205A09012A41
:10A130000CBF0A464FF0FF3203F01F05EA40D2077A
:10A1400048BFE21803F1010348BF82F83000302B0A
:10A15000ECD10021C8B20131FFF7D2FF0C29F9D1AF
:10A16000062200210D4813F0C9FC0D4BC02283F8D4
:10A17000062340221A604FF4BE70FFF791FF094B8F
:10A180004FF00042C3F80423012384F86A30002012
:10A1900038BD0820FCE700BFB426002018270020A7
:10A1A00000E100E000600040034B93F86A000038D3
:10A1B00018BF0120704700BFB426002037B5354BCB
:10A1C0001A18044692F93000013061D188780028CD
:10A1D00052D01846002250F8045B013546D11819B8
:10A1E00080F83020002043F82200920002F18042E3
:10A1F00002F5C0420B78D2F81055487825F499152D
:10A200001B04000525F4F85500F4801003F44033D6
:10A21000C2F8105503432002D2F8105500F47C50C8
:10A2200003432B43C2F810354A780194012A01A850
:10A2300026D1FFF741FF019B9A40C0F8082501A8ED
:10A240000194FFF739FF019B134903F5E0730322E3
:10A2500040F8232024FA02F2012304F0070003FA55
:10A2600000F08B5C18438854002003E00132082A78
:10A27000B1D1042003B030BDFE2382F83030D3E7E3
:10A28000FFF71AFF019A01239340C0F80C35D6E777
:10A290000820EFE7B42600201827002037B5174C18
:10A2A0002518014695F83000072809D8FFF728FF40
:10A2B00095F93030124A03F5A273002042F82300CA
:10A2C0000C44FF2384F830300E4DCC0801F0070316
:10A2D00001229A402B5D13420DD001A80191FFF796
:10A2E000EBFE019B03F5E073022140F823102B5D88
:10A2F00023EA02022A5503B030BD00BFB426002075
:10A30000006000401827002007B5019001A8FFF762
:10A31000D3FE0199D0F8043501228A4022EA0301D4
:10A320001340C0F80815C0F80C3503B05DF804FB05
:10A33000F7B53D4F3B18044693F93030002B71DAE6
:10A340008B78C3F34003002B0BBF082500250C209E
:10A350000820854202D1042003B0F0BD57F82560E3
:10A36000013647D138196EB247F8252080F83060A1
:10A3700013B97B1983F858408B785A071AD4D80739
:10A380003AD501A80194FFF797FE019B00EB8300EB
:10A39000D0F8003723F00203C0F800372348E20862
:10A3A00004F0070C012303FA0CF310F802C043EA8F
:10A3B0000C03835488780B7810F0020028D0AD008D
:10A3C00005F1804505F5C0452402D5F8102522F495
:10A3D0004F3222F44072C5F810251B04D5F8102521
:10A3E00004F47C5403F440331C431443C5F8104573
:10A3F0000020B1E70135ACE701A84A780194FFF7E6
:10A400005BFE019B03F5E073920040F82320C5E753
:10A41000083E47FA86F797F8604044EA831387F8C6
:10A42000603099E7082097E7B4260020182700201D
:10A4300073B5244D2E18044696F93020072A1DDDE9
:10A44000083A45FA82F595F860309B09032B10D144
:10A45000019001A8FFF730FE019BD0F81015D940FC
:10A4600001F001010231204602B0BDE87040FFF763
:10A470002FBE012B0CBF02210321F4E7D3B2072B1F
:10A480001DD8930003F1804303F5C043D3F81005B2
:10A4900040F00100C3F8100502F1400040B2800016
:10A4A00080B2FFF7FDFD51B196F9303055F82330F9
:10A4B0002BB1012303FA02F2034BC3F8042302B0C9
:10A4C00070BD00BFB4260020006000400E4B034466
:10A4D00093F93020072A02DD0021FFF7F9BDD3B23E
:10A4E000072B10D8930003F1804303F5C043D3F842
:10A4F000101521F00101C3F81015012303FA02F22F
:10A50000024BC3F808237047B426002000600040C7
:10A5100007B5019001A8FFF7CFFD019BD0F810050A
:10A52000D84000F0010003B05DF804FB2DE9FF47BF
:10A530000024CDE90244584D4FF48072012102F10C
:10A54000804303F5C04390B21B68012B06D1D5F8B8
:10A5500004330B4202D0FFF7A3FD0C430432B2F5E3
:10A56000907F4FEA4101EAD14B4BD3F87C31012B6C
:10A5700011D14FF4BE70FFF793FD4FF0A04344F0AC
:10A580000044D3F820250292C3F82025D3F82028D0
:10A590000392C3F82028E3B2D3B1404F012600252F
:10A5A000344210D0AB0003F1804303F5C043D3F82D
:10A5B0001005D3F8101557F8253023B1C1F3014128
:10A5C000C0F3052098470135082D4FEA4606E7D12C
:10A5D000002C59DA314D324C324E4FF00008012731
:10A5E00016F9013B5A1C3CD0C3F3C20104A8014434
:10A5F0005FFA83F911F8081C03F03F0203F0070328
:10A6000007FA03F319422CD001A80192FFF754FD79
:10A61000019B03F5E07350F82330C3F3014ABAF10C
:10A62000020F0CBF032102211046FFF751FD01A8C4
:10A630000192FFF741FD019B07FA03F3C0F82035B3
:10A64000AB1893F9303055F8233053B14FEA9911D4
:10A65000032904D0BAF1020F19D1012901D1104602
:10A66000984708F10108B8F1040FB9D14FF0A043A1
:10A67000D3F820250292C3F82025D4F8203503937F
:10A68000C4F820351343A7D104B0BDE8F087BAF170
:10A69000030FE6D10229E1E700600040B426002064
:10A6A0000003005014270020014B1B68184700BF0F
:10A6B000202700200E4B984237B50C4602D00020D0
:10A6C00003B030BD00230DF107008DF80730FDF712
:10A6D00001FF084B1D7915B901221C601A719DF804
:10A6E0000700FDF71BFF002DE9D01120E8E700BFB0
:10A6F0000020004020270020034B984201BF034B5D
:10A7000000221A601A7170470020004020270020A4
:10A710000023435082B043580193019B02B070471D
:10A720001FB501238DF80030044BCDE90110D3E9AA
:10A7300000126846904705B05DF804FB282700200A
:10A740007FB5434AD2F82461002E60D010464FF402
:10A750009271FFF7DDFF02238DF80030D2F88034CC
:10A76000C2F880340393D2F83C350293394BDA684F
:10A7700001920022C3E906226846D3E900129047FD
:10A780003348D0F8443173B14FF4A271FFF7C0FFE2
:10A79000304B9A693AB10022C3E90622D968D0F851
:10A7A0003C05FFF7BDFF2A48D0F82031ABB14FF48C
:10A7B0009071FFF7ADFF0123C360264B5A6962B168
:10A7C000D0F84C150291002299688DF80020019173
:10A7D0005A616846D3E9001290471D48D0F85831B5
:10A7E0009BB14FF4AC71FFF793FF1A4B5A6962B1FA
:10A7F000D0F84C150291002299688DF80020019143
:10A800005A616846D3E90012904704B070BDD2F88F
:10A810001031002BB4D04FF488711046FFF778FF49
:10A820000C4BD2F83C0599698842A9D1DC69D968FA
:10A8300064B1D2F8005225F02005C2F800521A691E
:10A840009C61DA60DE61FFF76BFF99E79C61FAE7D4
:10A8500000200040282700202DE9F843664E90F89C
:10A860000480242303FB0863044693F820300D463C
:10A870009146002B40F0BC8060490068FFF71AFF4A
:10A880000746002840F0B68029684B1C10D01F29CD
:10A8900087BF5B4A01F01F030B464FF0A042012027
:10A8A000984003F5E073C2F80805032042F823003E
:10A8B0006A68501C0DD01F2A8BBF02F01F0313467D
:10A8C0004F484FF0A04003F5E0734FF0000C40F804
:10A8D00023C02068AB69C0F8243595F814C06B7D9F
:10A8E000BCF1010F4CEA0303C0F86C35C0F80C153D
:10A8F000C0F814252BD1AB68591C0DD01F2B8BBF72
:10A9000003F01F021A463E494FF0A04102F5E072E3
:10A910004FF0000C41F822C0E9684A1C13D01F29EF
:10A9200087BF374A01F01F0C8C464FF0A0424FF012
:10A93000010E0EFA0CFE0CF5E07CC2F808E54FF0B3
:10A94000030E42F82CE0C0F80815C0F81035242298
:10A9500002FB08F2B318C3F804902B69B350B9F1A5
:10A96000000F2FD04FF488712A7FFFF7D1FE2068A7
:10A970004FF49071FFF7CCFE20684FF49271FFF70F
:10A98000C7FE20684FF4A271FFF7C2FE4FF4AC710E
:10A990002068FFF7BDFE23681A49C3F80413190B9A
:10A9A00043F307335201002BD2B21CDB1648C51803
:10A9B00085F8002301225B0901F01F0102FA01F171
:10A9C00040F8231023680822C3F80025242303FB42
:10A9D00008660023C6E906337361012386F8203038
:10A9E0003846BDE8F883094B01F00F015A54E9E7F6
:10A9F0000827F5E71127F3E72827002041A70200E1
:10AA0000000300501003420000E100E014ED00E0FC
:10AA10000279044B242101FB02335869003818BF26
:10AA2000012070472827002001F06043B3F1005F48
:10AA30002DE9F0470646884692463BD190F80490AF
:10AA4000FFF7E6FF0446002836D11D4F3068242565
:10AA500005FB09754FF49071C5F814A0C5F808807E
:10AA6000FFF756FE4FF4AC713068FFF751FE3368C4
:10AA70006A69A968C3F84415C3F8482501229A6099
:10AA80006A68DAB9D3F82021D3F858011AB9002836
:10AA9000F8D00F2007E00028FBD10122DA60D3F8BC
:10AAA0005821002AFBD0242303FB097700237B6174
:10AAB000BDE8F0871020FBE71120F9E72046F7E713
:10AAC000282700200023435082B043580193019B64
:10AAD00002B070478B6A4A6B9A4210B54FF001037F
:10AAE00005D2496A8A5CC0F81C251A4604E091F830
:10AAF0002C201AB1C3610022104610BD0C6A6406F6
:10AB000003D5C36181F82D30F6E74361EDE770B5F9
:10AB1000D0F8046105460C4626B14FF48271FFF768
:10AB2000D1FF012694F82F2022B34FF492712846CA
:10AB3000FFF7C8FF4FF48E71FFF7C4FF4FF4847125
:10AB4000FFF7C0FF002E69D094F82F20002384F86F
:10AB50002D3092BBA36A616B99421CBF1646052338
:10AB600086F001061CBFC5F80025C5F8003584F83D
:10AB70002F6023E0D5F824314BB14FF49271284671
:10AB8000FFF7A0FF01236B6184F82F30DAE7D5F8D7
:10AB90001C31ABB14FF48E712846FFF793FF636B06
:10ABA00001336363D5F8243113B14FF49271E7E7B1
:10ABB0002146FFF78FFF0028C4D10022104670BD48
:10ABC000D5F80831002BBDD04FF484712846FFF72B
:10ABD00079FFD5F82431002BE7D1636BA16A8B4252
:10ABE000B0D2616AD5F81805C854636BA16A013305
:10ABF000481E8342636308D1206A400610D40223B2
:10AC0000C5F8003201232B629CE78B42FAD1236AFC
:10AC10005B0697D5022384F82D30CFE70122CDE7DC
:10AC20008B42EFD1F6E7000037B5314B01930D466B
:10AC30004FF48271FFF746FF4FF49271FFF742FF26
:10AC40004FF48E71FFF73EFF4FF48471FFF73AFF28
:10AC50000023C0F800326B6385F82F3001230362B4
:10AC600095F82D209A4218BF836029460446FFF7C5
:10AC700031FF2B6883B140F28623AB60AB68C4F828
:10AC80000433002003B030BD29462046FFF73FFFC4
:10AC900028B1019B013B0193019B002BF4DC95F84B
:10ACA0002F0050B9019B002BECDC0023C4F80035C9
:10ACB0000523C4F800350320E4E7D4F8C434C4F80D
:10ACC000C43493B113F0010F14BF4FF402400320BA
:10ACD00048F2012213F0020F18BF104613F0040FC0
:10ACE00048F2022318BF1846DCE70320DAE700BF6A
:10ACF000A086010037B5344B01930D464FF48271A5
:10AD0000FFF7E0FE4FF49271FFF7DCFE4FF48E7117
:10AD1000FFF7D8FE4FF48471FFF7D4FE00236B6376
:10AD200085F82F30AB6A012B044617D12B6A5B06DE
:10AD300014D40223C4F800320123236295F82D2095
:10AD4000022A18BF23602B6893B140F28623AB60C0
:10AD5000AB68C4F80433002003B030BD0123E9E739
:10AD600029462046FFF7D3FE28B1019B013B019302
:10AD7000019B002BF4DC95F82F0050B9019B002BB0
:10AD8000EADC0023C4F800350523C4F800350320AD
:10AD9000E2E7D4F8C434C4F8C43493B113F0010F1B
:10ADA00014BF4FF40240032048F2012213F0020FB7
:10ADB00018BF104613F0040F48F2022318BF1846BC
:10ADC000DCE70320DAE700BFA0860100F0B587B01A
:10ADD00007460C46FFF79BFE002846D194F82FC08B
:10ADE000D4F820E0BCF1000F1FD1237B9A1E012A6A
:10ADF0001BD8616AA269914217D1E2696262CEF3FF
:10AE0000401E6269A262032B84F82CE084F82DC0F6
:10AE10002146384604D107B0BDE8F040FFF704BF33
:10AE200007B0BDE8F040FFF765BF04F10C060FCE98
:10AE300001AD0FC533682B60BCF1000F20D0D7F8EF
:10AE4000C434C7F8C434990711D501238DF80030F4
:10AE500000231EF0040F84F8303002D0BCF1000F44
:10AE600003D0D4E900316846984707B0F0BD5A07CF
:10AE700001D50223EAE7DB074CBF03230423E5E700
:10AE80008DF800C0E4E7000001490248FFF79EBFCB
:10AE90004C2700200030004002494FF04020FFF7CF
:10AEA00095BF00BF882700202DE9F84F07793B4E5A
:10AEB0004FF03C0A0AFB07FA06EB0A059B4695F899
:10AEC0002E3080460C469146002B63D1344B0068EF
:10AED00053F82710FFF7EEFB00285DD12168637B54
:10AEE00085F838301F298CBF01F01F030B4603F58E
:10AEF000E07388BF2B4AA86098BF4FF0A04240F291
:10AF00000C6C85F8300042F823C06268C5F804B0C4
:10AF10001F2A8CBF02F01F03134685F82D0085F809
:10AF2000310003F5E07388BF1E4D46F80A9098BFC4
:10AF30004FF0A04545F823C0D8F80030C3F80815F5
:10AF4000C3F80C25A268C3F82425B9F1000F14D06A
:10AF5000227B43F3073152010029C3F30733D2B2F6
:10AF600013DB114C651885F800230122490903F011
:10AF70001F0302FA03F344F821303C2303FB076666
:10AF8000012386F82E30BDE8F88F084903F00F033F
:10AF9000CA54F2E70820F6E71120F4E74C27002016
:10AFA00008E503000003005000E100E014ED00E0BC
:10AFB000036802790521C3F80015044B3C2101FB0D
:10AFC0000233022283F82E20704700BF4C27002056
:10AFD00003680A4A0179C3F80823D3F8002222F053
:10AFE0000302C3F800220022C3F80025044B3C22D0
:10AFF00002FB0133012283F82E20704786420400B1
:10B000004C27002070B50679234D3C23734304463A
:10B01000EB5893B103681A0B43F30733002B0CDB97
:10B0200002F01F015B0901228A4020331B4941F8CD
:10B030002320BFF34F8FBFF36F8F2046FFF7C8FF6A
:10B040002068FFF759FB3C2303FB065393F8383085
:10B05000DBB92268D2F808351F2B86BF03F01F0327
:10B060000F484FF0A04003F5E073022140F8231091
:10B07000D2F80C351F2B86BF03F01F03084A4FF090
:10B08000A04203F5E07342F823103C2303FB06556E
:10B09000002385F82E3070BD4C27002000E100E031
:10B0A000000300502DE9F047314F0479D0F80090AB
:10B0B0003C2303FB04730D4693F82D30012B94467B
:10B0C00004D10B78012B06D1082011E0022B02D10C
:10B0D0000B78012BF8D13C26264BC9F8083306FB28
:10B0E000047696F830302BB1B368C9F804331120D8
:10B0F000BDE8F0878CF00403C3F3800386F830309A
:10B10000C6F820C0A846B8E80F0006F10C0EAEE85D
:10B110000F00D8F80030CEF800306B68B362EB68EF
:10B1200073626B78C9F888352B78C4EB041A012B4D
:10B1300007EB8A0A17D09BB9CCF3401C3C2303FBD6
:10B140000473514683F82CC04846FFF76DFD3C233D
:10B150005C433A193B59002BCAD182F83030C7E71B
:10B160004FF0010CEAE751464846FFF7C3FDEEE712
:10B170004C2700208642040010B586B00024CDE99B
:10B1800002349DF820308DF80510A342CDE9042447
:10B1900001A914BF202222468DF80440FFF782FF48
:10B1A00006B010BD10B586B0012402930023CDE98E
:10B1B00003328DF805101A4601A98DF80440059355
:10B1C000FFF770FF06B010BD1FB503788DF8003093
:10B1D0008388ADF8043083688DF80630C3688DF835
:10B1E0000730036902934369054A0393054B684698
:10B1F00053F8213052F82110984705B05DF804FB50
:10B20000C4270020CC270020024B4FF4807043F06D
:10B210000103184710E503001F2886BF054A00F008
:10B220001F004FF0A042012303FA00F0C2F8080506
:10B23000704700BF000300502DE9F047154690F815
:10B240000080394A42F82850384A42F828304B7B6F
:10B2500006460C46A3B30868DFF8D8904FF0A0412B
:10B2600000F5E07340F20C6241F82320636803F5B7
:10B27000E073002741F82320FFF7CEFF6068FFF757
:10B28000CBFF236803F5E07340F20D6241F8232001
:10B29000636803F5E0734FF0010A41F82320FFF7DC
:10B2A000B3FF63681F2B8ABF4A464FF0A04203F0EA
:10B2B0001F03D2F8102522FA03F3DB070BD507BBD7
:10B2C000002D1B4A434608BF2A462146301DBDE8D3
:10B2D000F047FFF7E9BD23681F2B86BF03F01F036C
:10B2E0004A464FF0A0420AFA03F3C2F80C35FFF7C2
:10B2F0008BFF01372068FFF78FFFFFF785FF092FCE
:10B30000CFD163681F2B86BF0A4903F01F034FF09C
:10B31000A041012202FA03F3C1F80C35FFF774FFD4
:10B320006068FFF779FFCBE7CC270020C427002017
:10B33000C9B10200000300507FB503788DF80430D6
:10B340004368029383688DF80C30C36804930369E3
:10B35000064A8DF81430064B01A853F8213052F8F4
:10B360002110984707B05DF804FB00BFD4270020E8
:10B37000E4270020F0B50546174615F804CB124A1D
:10B3800042F82C70114A42F82C30114B0C460FCB6E
:10B3900085B06E4686E80F002368009323798DF808
:10B3A000053063798DF80630A3680293002FA389D6
:10B3B000084AADF80C3008BF3A4663463146284685
:10B3C00000F054F805B0F0BDE4270020D427002099
:10B3D00018E5030039B302001F2886BF054A00F0B4
:10B3E0001F004FF0A042012303FA00F0C2F80C0541
:10B3F000704700BF000300501F2886BF054A00F0B9
:10B400001F004FF0A042012303FA00F0C2F8080524
:10B41000704700BF00030050114B07B5D3F8182147
:10B42000DAB110490022C3F81821C87FD3F81831C7
:10B430000193FF28019B03D08B7F5BB1FFF7CCFF0B
:10B4400000234B770B72D1E90031074803B05DF858
:10B4500004EB1847FFF7D0FFF2E703B05DF804FBF9
:10B4600000300240F8270020002800202DE9F74F87
:10B4700006796D4D01934FF0240909FB06F905EBA0
:10B48000090A93469AF81C2080460C46002A40F090
:10B49000C780076865493846FFF70CF90146002860
:10B4A00040F0C08045F809B0019BCAF80430237B06
:10B4B0002078012B00F29D80FFF78EFF23781F2B51
:10B4C00086BF03F01F035A4A4FF0A04203F5E07312
:10B4D000012042F8230094F80190B9F1FF0F00F029
:10B4E0008B804846FFF778FFB9F11F0F8BBF09F03B
:10B4F0001F034B464E4A4FF0A04203F5E073032072
:10B5000042F82300A378FF2B79D01F2B8BBF03F0C9
:10B510001F021A4646484FF0A04002F5E0724FF075
:10B52000040C40F822C09A46242202FB065282F8FC
:10B530002030E078D077FF2816D02379002B61D017
:10B54000FFF74AFFE3781F2B86BF03F01F03384A3B
:10B550004FF0A04203F5E073032042F823002423B8
:10B5600003FB065322799A772378C7F80835A36836
:10B57000C7F80C95C7F810A5C7F82435637B227B64
:10B58000003B18BF0123022A3FD0032A40D0012AE2
:10B5900001D143F00203C7F85435A379C7F8C03589
:10B5A0000723C7F8003524237343EB58B3B1D8F809
:10B5B0000030627943F3073052010028C3F30733A8
:10B5C000D2B228DB1B4C271887F800230122400940
:10B5D00003F01F0302FA03F344F82030242303FB93
:10B5E000065500236B7701232B77084603B0BDE88F
:10B5F000F08FFFF701FF61E74FF0FF3982E74FF06F
:10B60000FF3A91E7FFF7F8FE9CE743F00403C2E737
:10B6100043F00603BFE7084803F00F03C254DDE719
:10B620000821E2E71121E0E7F827002019B4020021
:10B630000003005000E100E014ED00E070B5057972
:10B64000254C24236B43E35893B103681A0B43F34F
:10B650000733002B0CDB02F01F015B0901228A403B
:10B6600020331E4941F82320BFF34F8FBFF36F8F64
:10B6700024236B43E218E35800687BB1184BC0F8F1
:10B680000833537F53B101234361D0F80431002BB9
:10B69000FBD0242303FB054300225A77242303FB1A
:10B6A000054393F82030FF2B0BD01F2B86BF03F0F0
:10B6B0001F030C4A4FF0A04203F5E073022142F849
:10B6C00023100026C0F80065FFF716F8242303FBBB
:10B6D0000544267770BD00BFF827002000E100E098
:10B6E00052010800000300502DE9F34107795C4E38
:10B6F00024237B431446F2180D46517F80460029CF
:10B7000040F0AC80F35823B114F0140F04BF0123B0
:10B71000537795E80F004FF0240C0CFB076C0CF1ED
:10B720000C0E8EE80F009CF81F00FF2804D09CF838
:10B730001E30C3B1FFF760FE286820B100F06043FF
:10B74000B3F1005F06D1AA6882B102F06043B3F1A1
:10B75000005F0BD0242303FB0766002373771020C0
:10B7600002B0BDE8F081FFF737FEE5E7D8F800301A
:10B770006968C3F84405ED68C3F84815C3F8342573
:10B78000384AC3F83855934223D14FF08042D2F85B
:10B79000005E354A1560E1B1344D20F4FF5222F0CD
:10B7A0001F02AA4249D8C2F34F350144DFF8C0C096
:10B7B0000120A840002502F50052914245EA00050B
:10B7C0004FEA400001D96245F5D34FF08042C2F8FC
:10B7D000005E0022C3F81821D3F818210192019AC3
:10B7E00014F0010218BF0122C3F8502514F0020220
:10B7F00018BF0122C3F8402522075CBF01221A614D
:10B8000024227A43B258F2B9D3F81821002AFBD087
:10B81000144A934201BF144B1A684FF08043C3F897
:10B82000002E242303FB0766F07FFF2803D0B47F9C
:10B8300034B1FFF7D1FD002092E74FF48075C4E7E3
:10B84000FFF7DAFDF7E714F004004FF0400202D0F2
:10B85000C3F80823EFE7C3F8042381E711207FE74B
:10B86000F827002000F00240F4270020FFFF00200E
:10B87000002001202DE9F743002406460F4600F57D
:10B88000A0754FF48038A1462B688BB1D6F80433ED
:10B8900008FA04F21A420BD0C5F800902B68019305
:10B8A000019BA30003F5A07398B2D7E90031984734
:10B8B0000134042C05F10405E6D103B0BDE8F083A2
:10B8C00001490248FFF7D6BF1C2800200080004035
:10B8D00001490248FFF7CEBF282800200090004011
:10B8E00000F1804000F5E040002382B0036003686F
:10B8F0000193019B02B07047F0B5524B524CD3F804
:10B90000043185B0002B3DD094F82E204FF4827086
:10B91000FFF7E6FF2AB394F82F3013BB494AD2F859
:10B920000031002B32D04FF48070FFF7D9FF638BCA
:10B9300094F82D00834250D921891B1A9BB289B2F9
:10B940006383CB1A616801EB4303C2F82C36C2F85B
:10B9500030064FF48270FFF7C3FF3A4B01225A6062
:10B9600014E0636802932389ADF80C30E36800218A
:10B970008DF8041033BB2374236801A89847002373
:10B9800084F82F3094F82E30002BC7D12D4BD3F8EC
:10B9900010315BB14FF48870FFF7A2FF00232374CE
:10B9A00002238DF8043001A823689847254BD3F86B
:10B9B0001431EBB14FF48A70FFF792FF0023237428
:10B9C00005B0F0BD208B608363602081E160002AB8
:10B9D000D2D11C4B01221A60CEE7BAD1E368012113
:10B9E00084F82F1013B100216183AEE76383B0E7C1
:10B9F00066694FF000470125002EE1D0B6FA86F2C5
:10BA000027FA02F34632920026EA030602F1804347
:10BA100003F5E0431B68002BEED01046A2F58C72B4
:10BA2000FFF75EFFD30882F00402C2F380028DF8B4
:10BA300008308DF8045023688DF8092001A8984734
:10BA4000DAE700BF007000403428002038B5204AF3
:10BA500092F82C300446002B37D111601D49007834
:10BA6000C1F8F0056078C1F8F4050125E078137499
:10BA700082F82D30536182F82F306FF0004382F846
:10BA80002E0082F82C504FF48270C1F80833FFF773
:10BA900027FF4FF48070FFF723FF4FF48A70FFF702
:10BAA0001FFFA3780C485B01DBB280F807338023CB
:10BAB00003600223C1F8043392F82E300BB1C1F8B1
:10BAC0000453C1F80055002038BD0820FCE700BF32
:10BAD000342800200070004000E100E030B5224B27
:10BAE0001A7C002A3ED100F10C0403EB44021279C7
:10BAF00022B993F82D20013283F82D2003EB440363
:10BB0000CA790C7A8D781A715C714B782D021B0101
:10BB100005F4E06503F030032B430D7805F00305D1
:10BB20002B43CD782D0305F480552B430D792D043F
:10BB300005F4E0252B434D7989792D0505F4801511
:10BB4000090601F080712B430B43010101F1804193
:10BB500001F5E0410020C1F81835C1F81445C1F8DD
:10BB6000102530BD1120FCE73428002070B5324A82
:10BB7000147C04F0FF03002C5CD1304C012503261B
:10BB80001574C4F80863C4F82C16C4F8305692F83B
:10BB90002D40AC420CD91D46190101F1804101F53F
:10BBA000E0410133082BC1F81455C1F81055F3D109
:10BBB00000F10C03000102EB430300F1804000F5AB
:10BBC000E04019795B79C0F81435C0F810151B49AD
:10BBD00001230B604B6042F21073D1F8040108B9E5
:10BBE000013BFAD14FF48070FFF77AFE4FF4827078
:10BBF000FFF776FE012C11D90F4800210B0103F14C
:10BC0000804303F5E0430131047F457FC3F81455B9
:10BC10000829C3F8104500F10200EFD192F82E1068
:10BC2000064B29B103210020C3F80413107470BD22
:10BC30000221F8E71120FAE73428002000700040C4
:10BC4000F0B51B4F8BB207EB001443EA0243C4F874
:10BC50001C35184B40005C6900F1010C4FF00046A8
:10BC600011F5006F26FA0CF64FF0800505FA00F585
:10BC70000BBFB44334435C615C610CBFC7F808532D
:10BC8000C7F8045340244FF000455969844025FA11
:10BC900000F040F2FF75AA42054A0BBF8143014301
:10BCA000596159610CBFC2F80843C2F80443F0BDA2
:10BCB000007000403428002010B5124B1A7CF2B9F5
:10BCC00000F10C0103EB4102127922B193F82D200F
:10BCD000013A83F82D2003EB410300249C800301EB
:10BCE00003F1804303F5E0430749C3F8144540F2EC
:10BCF000FF72C3F81045FFF7A3FF204610BD1120C7
:10BD0000FCE700BF3428002000F8FFFF38B5144BD3
:10BD10006FF00042C3F80823124A8021C2F8801055
:10BD2000BFF34F8FBFF36F8F01229A6042F2107200
:10BD3000D3F8141109B9013AFAD10B4D0024C3F814
:10BD400000452C7405EB44031B7F13B1E0B2FFF7F1
:10BD5000B3FF0134082CF5D1002385F82C3038BD11
:10BD60000070004000E100E034280020A8DF7047A8
:10BD7000ADDF7047AEDF7047B0DF704762DF7047FE
:10BD80003CDF70473DDF704770470000F0B5044668
:10BD900089B038B10388512B26D005D8102B17D085
:10BDA000112B19D009B0F0BD532BFBD12F4DC288F8
:10BDB000EB889A42F6D12B7E002BF3D000F092F95B
:10BDC0000028EFD06B69022009B0BDE8F0401847A9
:10BDD0008288264B9A80E5E7244B81889A88914295
:10BDE000E0D14FF6FF72F5E7204D8288AB889A428A
:10BDF000D8D18679022ED5D10289EB889A42D1D149
:10BE0000837B043B022BCDD9102200210DEB0200D5
:10BE100011F074FE01AF6989A8888DF8106002AA3C
:10BE200002960397FFF7A4FF0646D0B9384601F003
:10BE30009CF8B0B19DF81630ADF8146043F00103E2
:10BE40008DF81630A88804A9FFF796FF1128F9D0BD
:10BE5000BDF81430002BA5D104F1080000F0F0F873
:10BE6000A0E740F2FD13ADF81430EBE764280020A2
:10BE700030B587B005460C461022002102A811F00B
:10BE80003DFE0323ADF8023020238DF804300F4B24
:10BE90008DF80550DA88ADF8082002228DF80A20C6
:10BEA0000022ADF80C200DF10202049298888DF862
:10BEB000064001AA02A90592FFF75CFF20B9BDF870
:10BEC0000230032B18BF0C2007B030BD64280020BF
:10BED00010B54FF0FF310020FFF754FF044658B96A
:10BEE000B121FFF74DFF044630B9044B01205B69D7
:10BEF00098470220FDF708FF204610BD6428002067
:10BF0000F0B51B4B87B002AC024603F11007254683
:10BF100018685968264603C60833BB423446F7D131
:10BF200022B3144B12685A614FF6FF7199800021B9
:10BF300019760AB9104A5A610E4800F04FF898B9BC
:10BF400001204FF659630D4A8DF8060001A9ADF89E
:10BF50000430FFF70BFF38B906492846FFF70EFFFC
:10BF600010B9044800F044F807B0F0BD0E20FBE71C
:10BF700028E503006428002089BD0200662800200F
:10BF800014490B6810B51BB34B680BB308319847C5
:10BF900008281DD0104C236858B95876012102207A
:10BFA000FFF766FFA0B123685B690320BDE810407E
:10BFB000184700225A7606210220FFF759FF18B1D0
:10BFC000236803205B699847236802205B69EDE7DB
:10BFD00010BD00BFA02800209C28002018B1034BF2
:10BFE0001860002070470E20704700BF9C2800207A
:10BFF00010B588B0044620220021684611F07EFD6D
:10C0000022460323ADF8003012F8063B8DF80230CB
:10C01000BDF80C30608823F4235323F03F0343F42E
:10C02000205343F00103ADF80C301723ADF8043072
:10C0300069464FF00133049300F09BFF08B010BD38
:10C0400070B50546007B244C01280ED0022824D070
:10C050000221287BFFF70CFF18B1236803205B69DE
:10C060009847236802205B6909E023685E7E4EB131
:10C070000621FFF7FDFE50B323685B690320BDE88E
:10C080007040184718760146FFF7F2FEF8B12368B2
:10C0900011281E761CD00421DBE76A7B531E132B6C
:10C0A00018D80E4E05F10E01301D11F0FEFC6B7B11
:10C0B000B36123685B7E002BEDD10949304651F80E
:10C0C000083B98470028E6D1236801225A7670BDC4
:10C0D0000621BEE70521BCE79C280020802800201F
:10C0E000A028002008B5044B1B6800205B69984716
:10C0F000BDE80840FFF7ECBE9C2800206DDF7047CC
:10C1000079DF70477DDF704764DF70472DE9F04FBE
:10C1100085B000250E9CBDF83CB0B4F800A001919C
:10C12000074690461E46A9463A884A450DDC45B169
:10C130002388013BA3EB0A039BB2FF2B3AD806F8F6
:10C140000A30002005B0BDE8F08F7A6852F8290067
:10C15000039000220DF10B0103A8FFF7D5FF002883
:10C16000F0D19DF80B20424521D12288002D14BF2B
:10C170000020022002EB0801014459451ADC3DB9B8
:10C18000013292B2019B2280B35422880132228074
:10C1900022880DF10B01324403A8FFF7B5FF0028F8
:10C1A000D0D121889DF80B200A442280012509F175
:10C1B0000109B9E70C20C5E72DE9F341089FBDF857
:10C1C00024801546CDE90078022204461E46FFF77A
:10C1D0009DFF50B93346102229462046CDE9087804
:10C1E00002B0BDE8F041FFF791BF02B0BDE8F081B9
:10C1F0002DE9F04F00231788138090F82D3085B07B
:10C2000006460D46144653B3082F01D80C2027E1EB
:10C2100002A8FFF773FF002840F02281238808223C
:10C22000EA54238801339BB21B222380EA542088DE
:10C23000013080B2208006220DF10901284411F05E
:10C2400034FC23889DF8082006339BB212F0FE02CE
:10C2500018BF01222380EA54238801332380B37856
:10C26000FBB123880433BB42D0D802A8FFF748FFB4
:10C27000002840F0F58023880322EA542388013304
:10C280009BB219222380EA542388BDF80820013389
:10C290009BB2E9182380EA54120A4A7023880233B9
:10C2A0002380F2789AB12388D91CB942AED80221F2
:10C2B000E954238801339BB201212380E954238868
:10C2C0000B449BB22380EA5423880B44238072687A
:10C2D000AAB12388D91CB94298D8022192F900202A
:10C2E000E954238801339BB20A212380E95423882F
:10C2F00001339BB22380EA5423880133238033899E
:10C30000002B40F0A180338A5BB1CDE900472B467A
:10C310000722032106F11000FFF74EFF002840F02E
:10C320009F80338B5BB1CDE900472B46152214214A
:10C3300006F11800FFF740FF002840F09180326AB4
:10C34000002A40F09080D6F82480B8F1000F30D059
:10C35000B8F804302188981C8A1C0244BA423FF67F
:10C3600055AFFE283FF652AF03336B542388013399
:10C370009BB2FF222380EA54238801339BB223809F
:10C38000B8F80020EA54E918120A4A7020880230EE
:10C3900080B22080B8F804205AB1D8F808100029DB
:10C3A0006BD0284411F081FB2388B8F80420134493
:10C3B000238096F82C30002B40F0988030780028AD
:10C3C0004ED03388012B58D0228802F1020CBC4594
:10C3D0003FF61CAF012805D17378023313449F4206
:10C3E000FFF414AF023FBF1ABFB202A905EB0C0065
:10C3F000ADF80870FFF786FE90BB3178BDF80830C5
:10C40000022900F0B98072789A4202D39F4280F0EC
:10C41000B180012940F0B280974293B2C0F0AE8063
:10C42000ADF808300821BDF80830FE2B3FF6EEAE1F
:10C4300022880133AB542288013292B22280A9545F
:10C440002288134423800BE0CDE900472B460622C7
:10C45000022106F10800FFF7AFFE00283FF453AFBA
:10C4600005B0BDE8F08FB4F800C00CF10603BB4284
:10C470003FF6CCAE1188052901D80720F0E76FF40C
:10C48000486E01EB0E039BB24FF27D3E7345F4D92B
:10C490005388052BF1D96FF44860181880B27045A5
:10C4A000EBD94FF6FF70814201D09942E5D80523C0
:10C4B00005F80C30238801339BB212212380E95404
:10C4C000238801339BB223801188E954E818090AB4
:10C4D0004170238802339BB223805288EA54E918C2
:10C4E000120A4A702388023323802CE7B36A002B98
:10C4F000C3D04FF000084FF00C0A4FF0160BB16A92
:10C500005FFA88F20AFB02F201EB0209B9F8043083
:10C51000981CFE283FF67AAE208803332B542388DC
:10C5200001339BB2238005F803B0238801339BB20B
:10C5300023808A5AEA54E918120A4A702088023085
:10C5400080B22080B9F804205AB1D9F80810002927
:10C5500093D0284411F0A9FA2388B9F80420134491
:10C56000238096F82C2008F101085FFA88F39A429C
:10C57000C5D823E7092156E79F42FBD2ADF80870E2
:10C5800050E730B5C8B1F2B10024651C8D4206DA1F
:10C590001588A54212D805196D789D420ED1A14289
:10C5A00011D9005D48B1013880B230B10234A3B274
:10C5B00010FA84F4A14206DB138030BD055D01351D
:10C5C0002C44A4B2E1E70020F7E713B5134600229C
:10C5D000ADF806200DF106020446FFF7D2FF10B1B8
:10C5E000BDF80630E01802B010BD72DF704773DF8F
:10C5F000704738B5012204460D46B0F81414D0F83F
:10C600001004FFF7E2FF00B1057004F13C0204F5ED
:10C61000826104F15400BDE83840FFF7E6BF80F8BE
:10C6200030107047F8B504460F4600296DD0002839
:10C630006BD091F87A301BB191F89830002B66D10D
:10C640004FF0000C84F802C007F178060FCE251DCC
:10C650000FC50FCE0FC596E8070085E8070084F8E0
:10C6600030C0D7F8A4306363D7F8A830A3634FF67F
:10C67000FF7504F58263C4F82034A4F8245407221B
:10C68000614604F2264011F039FA23780BB984F898
:10C69000545094F82430002B14BFEE231F2304F1D0
:10C6A0005501C4F81014A4F8143404F214423846A6
:10C6B000FFF79EFD40BB94F82430002B14BFEE23FF
:10C6C0001F2304F23121C4F81814A4F81C3404F216
:10C6D0001C4207F13C00FFF78BFDA8B9A369A4F841
:10C6E00048304FF480730125A4F85030636920640A
:10C6F000014684F83C50636404F13C0204F15400A8
:10C70000FFF773FF00B92570F8BD0E20FCE7072086
:10C71000FAE7F8B5077804460D46002F00F00A81C5
:10C7200000F22646817007220021304611F0E6F91A
:10C73000E38813B1A378012B04D0E3794BB1A3783C
:10C74000022B06D1636BABB1012284F82D240820A3
:10C75000984704F2274304F22D4113F8012B12B934
:10C760009942FAD117466B1E032B57D8DFE803F026
:10C77000050B0F1284F82D34EBE7A3791BB194F865
:10C78000243003B95FB9E3790BB1002F48D1237A84
:10C79000002B47D1637A002B0CBF00250425636B67
:10C7A000A570002B40D0033D012D3DD86279002AB1
:10C7B0003AD094F82E24002A36D184F8302401226D
:10C7C00084F82F240720984704F13C051822002103
:10C7D000284611F093F9E26A0123511E994284F828
:10C7E0003C3001D9042A00D1D3B294F8242084F833
:10C7F000513042B1A36A591E012902D9042B18BF36
:10C80000012384F85230A178002384F850300429A1
:10C810001BD8DFE801F0770D223559000025BEE76F
:10C820000225BCE70325BAE7002384F82F34CBE7C1
:10C83000C4E91063C4F820340223012284F83C3098
:10C84000802384F83120A4F84830A378002B5CD1F1
:10C85000636B002B6AD1002067E00223002A84F872
:10C86000313014BF0723032384F83C302369A4F834
:10C8700048300023C4F82034E36826646364E4E7A6
:10C8800063696364A369A4F8483012B1062384F88D
:10C890003C306379B3B194F82E349BB994F83034BA
:10C8A00083B1022384F8503004212046FFF7A1FE13
:10C8B0000028CAD1052384F8313004F58263C4F816
:10C8C0002034C2E70323F6E7E3696364236AA4F82C
:10C8D000483012B1062384F83C30637983B194F870
:10C8E0002E346BB994F8303453B1022384F85030AD
:10C8F00004212046FFF77DFE0028A6D10623DAE7B3
:10C900000423D8E784F831309FE7D4F820142A466E
:10C9100004F15400FFF769FE38B994F8301094F828
:10C920005400FFF764FE002892D0F8BD94F831005F
:10C93000984790E70820F8E70388112B10B50C46BC
:10C940000AD0262B1FD0102B05D1C37B012B02D17F
:10C950008388A1F8243410BD0022838881F82E2416
:10C96000B1F824249A42F6D10B79002BF3D101219E
:10C970002046FFF7CEFE0028EDD0A36B002BEAD0B7
:10C98000BDE810401847037A013B012BE3D88978B2
:10C9900005230131B1FBF3F303EB8303C91AC9B2D9
:10C9A000E6E730B50D46041D0FCD0FC40FCD0FC403
:10C9B00095E8070084E8070030BD75DF704776DF33
:10C9C00070477ADF70477BDF70470000034B1A889F
:10C9D00082420CBF18460020704700BFC8280020C4
:10C9E000024B9B6903B11847704700BFAC28002079
:10C9F00073B585B22846FFF7E9FF044638B3174EF2
:10CA0000027A337B9A420CD200F10A012846FFF7E2
:10CA1000D4FFF0B111281AD002B0BDE87040FFF782
:10CA2000DFBF00230372337C43B13B212846FFF76D
:10CA3000C6FF30F0080301D0FFF7D2FF736933B1AE
:10CA400000228DF80420ADF8065001A8984702B0E6
:10CA500070BD237A01332372F9E700BFAC280020B0
:10CA600037B50B46497A0F4A79B9D2E901141D7AD4
:10CA70000246002D18BF21465868FBF7F3FB78B13A
:10CA800003B0BDE83040FFF7ABBF00211972536916
:10CA900033B10122ADF806008DF8042001A89847B3
:10CAA00003B030BDAC2800204B8802889A4212D8CF
:10CAB00042889A420FD380888B8840F2F3118842D3
:10CAC00094BF021A421A9A4205D80844984234BFC9
:10CAD0000020012070470020704700000388122BBF
