:020000022000DC
:1070000000000420757302005D7302005F730200CC
:1070100061730200637302006573020000000000E8
:107020000000000000000000000000006773020084
:1070300069730200000000006B7302006D730200B0
:10704000C9CA02006F7302008DDA020001F5020066
:1070500019F502006F73020085D90200C50803000C
:10706000DD040300F50403006F7302006F73020078
:107070006F7302006F7302006F7302006F73020080
:107080006F730200E99E02006F7302006F730200CB
:107090006F7302006F730200698D02006F7302004C
:1070A0006F7302006F7302006F7302006F73020050
:1070B0006F7302006F730200000000000000000008
:1070C0006F7302006F7302006F730200A10303006D
:1070D000059F02006F7302006F7302006F7302005E
:1070E0006F7302006F7302006F73020000000000F4
:1070F000000000006F730200000000006F730200C8
:10710000000000000000000000000000000000007F
:10711000000000000000000000000000000000006F
:10712000000000000000000000000000000000005F
:10713000000000000000000000000000000000004F
:10714000000000000000000000000000000000003F
:10715000000000000000000000000000000000002F
:10716000000000000000000000000000000000001F
:10717000000000000000000000000000000000000F
:1071800000000000000000000000000000000000FF
:1071900000000000000000000000000000000000EF
:1071A00000000000000000000000000000000000DF
:1071B00000000000000000000000000000000000CF
:1071C00000000000000000000000000000000000BF
:1071D00000000000000000000000000000000000AF
:1071E000000000000000000000000000000000009F
:1071F000000000000000000000000000000000008F
:10720000354936480A1A02D0072291438D4634493F
:1072100034480A1A06D00722914381F309880222D2
:1072200082F3148830483149314A00F044F831483B
:107230003149324A00F03FF831483249324A00F0D1
:107240003AF832483249334A00F035F83248334987
:10725000334A00F030F833483349344A00F02BF811
:1072600033483449344A00F026F83448344900227F
:1072700000F02CF833483449002200F027F8334856
:107280003349091A082902DB002202604160314AB1
:1072900090471F481F49884205D00268043003B454
:1072A000904703BCF7E700208646EC46002000210B
:1072B000294A9047FEE7884207D0521A05D0037842
:1072C00001300B700131013AF9D17047884202D088
:1072D00002700130FAE770470000042000E003204C
:1072E0000000042000000420745C050084220020BB
:1072F000D0230020D0730200D0730200284705007D
:10730000745C05008422002084220020D047050000
:10731000D0470500D0470500D0470500D0470500FD
:10732000D0470500D0470500D0470500745C050034
:10733000C05D0500D0230020D0230020D0230020F2
:107340001835002018350020183500201835002089
:10735000185500209D730200F9800200FEE7FEE749
:10736000FEE7FEE7FEE7FEE7FEE7FEE7FEE7FEE7F5
:1073700000F002B8FFF7FCBF0F484FF00701884349
:1073800085460E4880470E48016841F4700101604F
:10739000BFF34F8FBFF36F8FFFF732BF09480A4922
:1073A0000A4A884207D0521A05D0037801300B7080
:1073B0000131013AF9D1704700000420DD72030069
:1073C00088ED00E0BC4705007022002084220020E8
:1073D000FEE7000082B00190019B1B681F2B02D8C2
:1073E0004FF0A04306E0019B1B6803F01F02019BC6
:1073F0001A60024B184602B0704700BF00030050ED
:1074000000B585B0019001AB1846FFF7E3FF03908C
:10741000019B012202FA03F31946039800F069F870
:1074200000BF05B05DF804FB00B585B0019001AB6D
:107430001846FFF7CFFF0390019B012202FA03F3E6
:107440001946039800F05FF800BF05B05DF804FB33
:1074500000B585B0019001AB1846FFF7BBFF039064
:10746000039BD3F804350293029BDA43019B01216D
:1074700001FA03F31A40039BC3F80825019B01227C
:107480009A40029B1A40039BC3F80C2500BF05B02D
:107490005DF804FB00B583B001900091009B002BC8
:1074A00003D10198FFF7C0FF02E00198FFF7A8FFA2
:1074B00000BF03B05DF804FB00B585B0019001ABDF
:1074C0001846FFF787FF0390039800F00AF802467A
:1074D000019B22FA03F303F00103184605B05DF89F
:1074E00004FB82B00190019BD3F80435184602B02A
:1074F000704782B001900091019B009AC3F8082563
:1075000000BF02B0704782B001900091019B009AC9
:10751000C3F80C2500BF02B07047000000B585B06D
:1075200001900F4A019B13441B781846FFF7C4FFD4
:107530000346002B14BF012300238DF80F309DF864
:107540000F30002B14BF01230023DBB283F00103B3
:10755000DBB203F00103DBB2184605B05DF804FBB3
:10756000D047050000B583B00190064A019B134443
:107570001B7800211846FFF78DFF00BF03B05DF8B0
:1075800004FB00BFD047050000B583B00190064A58
:10759000019B13441B7801211846FFF77BFF00BFB6
:1075A00003B05DF804FB00BFD047050000B583B011
:1075B0000023019305E00198FFF7E6FF019B0133EB
:1075C0000193019B032BF6D900BF00BF03B05DF808
:1075D00004FB00B583B00023019305E00198FFF799
:1075E000C1FF019B01330193019B032BF6D900BF1F
:1075F00000BF03B05DF804FB00B583B00190054AFD
:10760000019B13441B781846FFF722FF00BF03B00D
:107610005DF804FBD047050000B583B00C4B1B7828
:10762000002B0FD00023019308E0019B022B02D016
:107630000198FFF7A9FF019B01330193019B032BE5
:10764000F3D901E0FFF7B2FF00BF03B05DF804FB20
:10765000D82300202DE9D04F92B003468DF83F305B
:107660000023119300231093CC4B1B78002B04D0E4
:10767000CA4A00231370FFF7CFFF9DF83F30172B46
:1076800000F23F8201A252F823F000BFED76020023
:107690000577020005770200A17702003D7802001D
:1076A000B97802004D7902006D7902007D790200FF
:1076B000A9790200C7790200E5790200037A020085
:1076C000117A0200117A0200117A0200117A020086
:1076D000117A0200A57A0200B37A0200C77A02008A
:1076E000DB7A0200F57A0200F57A0200FFF794FFD8
:1076F000AB4B184601F0F7FF1190AA4A9DF83F30B6
:107700001370FFE10020FFF709FF0346002B0DD0A7
:107710000020FFF739FF9DF83F30022B02D14FF4D4
:10772000E16301E04FF47A6310930BE00020FFF770
:1077300019FF9DF83F30022B01D1C82301E04FF41F
:10774000C8731093974A9DF83F301370944C109B68
:107750000022009301924FF000024FF00003DDE998
:1077600000673946CB03314643EA51433146CA03E9
:1077700012F57A71029143F1000303934FF4FA6218
:107780004FF00003DDE902012CF0F2FA02460B464D
:10779000134600221946204601F058FF1190B1E12E
:1077A0000020FFF7BBFE0346002B0DD00020FFF7A3
:1077B000EBFE9DF83F30032B02D14FF4487301E0FC
:1077C0004FF47A6310930BE00020FFF7CBFE9DF897
:1077D0003F30032B01D1C82301E04FF4C87310934D
:1077E000704A9DF83F3013706D4C109B002204933B
:1077F00005924FF000024FF00003DDE904673946BF
:10780000CB03314643EA51433146CA0312F57A713C
:10781000069143F1000307934FF4FA624FF000031F
:10782000DDE906012CF0A4FA02460B4613460022BD
:107830001946204601F00AFF119063E10020FFF78E
:107840006DFE0346002B06D00020FFF79DFE4FF48F
:107850007A63109305E00020FFF784FE4FF4C873AD
:107860001093504A9DF83F3013704D4C109B0022EE
:107870009A4693464FF000024FF000034FEACB3395
:1078800043EA5A434FEACA3212F57A71089143F13A
:10789000000309934FF4FA624FF00003DDE9080199
:1078A0002CF066FA02460B46134600221946204683
:1078B00001F0CCFE119025E10020FFF72FFE0346DA
:1078C000002B0CD00020FFF75FFE9DF83F30052B0A
:1078D00001D1C82301E04FF47A6310930BE000203C
:1078E000FFF740FE9DF83F30052B01D1C82301E092
:1078F0004FF4C87310932B4A9DF83F301370284CF7
:10790000109B0022984691464FF000024FF0000372
:107910004FEAC93343EA58434FEAC83212F57A7145
:107920000A9143F100030B934FF4FA624FF0000306
:10793000DDE90A012CF01CFA02460B461346002230
:107940001946204601F082FE1190DBE00020FFF78F
:1079500053FE144A9DF83F301370114B002240F241
:107960006661184601F072FE1190CBE00020FFF72F
:10797000F9FD0C4A9DF83F301370C3E0074B01221C
:107980001A700120FFF738FE054B002240F26661B5
:10799000184601F05BFE1190B4E000BFD123002037
:1079A00088220020D0230020594B01221A70012088
:1079B000FFF722FE574B00224FF40051184601F00A
:1079C00045FE11909EE0524B01221A700120FFF7F4
:1079D00013FE504B002240F26661184601F036FE5D
:1079E00011908FE04A4B01221A700120FFF704FE2C
:1079F000484B00224FF40051184601F027FE119029
:107A000080E0FFF7E6FD444A9DF83F30137079E0CF
:107A1000424B184601F067FE11909DF83F30C3F1CC
:107A200011031093109B002B35D0119B002B32D1EA
:107A3000109B012B28D9394C109B9BB21A46C823A6
:107A400002FB03F3DA171E4617464FF000024FF011
:107A50000003FB0343EA5643F20312F57A710C91DB
:107A600043F100030D934FF4FA624FF00003DDE998
:107A70000C012CF07DF902460B46134600221946F4
:107A8000204601F0E3FD11900220FFF76BFD244B2F
:107A900001221A7036E00220FFF776FD204B00220B
:107AA0001A702FE0FFF7B8FD1B4A9DF83F301370A6
:107AB00028E0FFF7B1FD0020FFF754FD164A9DF8BE
:107AC0003F3013701EE0FFF7A7FD0120FFF74AFDCE
:107AD000114A9DF83F30137014E0FFF79DFD002020
:107AE000FFF740FD0120FFF73DFD0B4A9DF83F30B9
:107AF000137007E0FFF76DFD074A9DF83F301370E4
:107B000000E000BF119B184612B0BDE8D08F00BF47
:107B1000D123002088220020D0230020A82200208A
:107B2000D823002000B585B003468DF80730002328
:107B30000393084B1B6803F00103002B05D09DF84D
:107B400007301846FFF786FD0390039B184605B0E3
:107B50005DF804FBD423002084B001900B468DF81F
:107B6000033013468DF8023000230393019B032B4F
:107B70003CD89DF80230012B0BD19DF80330012B2E
:107B800004D1019BDBB20E33DBB200E000238DF8A1
:107B900002309DF80330022B0FD0022B23DC002B88
:107BA00016D0012B1FD11449019A13465B001344D0
:107BB0000B449DF802201A701AE00F49019A1346EF
:107BC0005B0013440B4401339DF802201A700FE050
:107BD0000949019A13465B0013440B4402339DF894
:107BE00002201A7004E00723039301E007230393A4
:107BF000039B184604B07047DC23002000B583B017
:107C0000012200210020FFF7A7FF0190019B002B1C
:107C100004D0019B072B01D0019B1CE0072202210D
:107C20000120FFF799FF0190019B002B04D0019BDD
:107C3000072B01D0019B0EE0042202210020FFF758
:107C40008BFF0190019B002B04D0019B072B01D0DF
:107C5000019B00E00023184603B05DF804FB00B56B
:107C600083B0012202210020FFF776FF0190019BE3
:107C7000002B04D0019B072B01D0019B1CE00722A5
:107C800002210120FFF768FF0190019B002B04D027
:107C9000019B072B01D0019B0EE00A22002100204E
:107CA000FFF75AFF0190019B002B04D0019B072B8B
:107CB00001D0019B00E00023184603B05DF804FBEF
:107CC00000B585B001900091019B1B88102B02D05C
:107CD000112B18D02FE01A4B1B68002B0DD1FFF78A
:107CE0008DFF0390039B002B07D0164B1B68002BC6
:107CF00003D0144B1B6803989847114B1B68013342
:107D00000F4A136017E00E4B1B68013B0C4A1360CF
:107D10000B4B1B68002B0DD1FFF7A1FF0390039BBA
:107D2000002B07D0074B1B68002B03D0054B1B68AB
:107D30000398984700BF00BF05B05DF804FB00BF83
:107D4000EC230020E823002000B585B00190019BC2
:107D5000002B0AD0074B43F001030393019B9B01C7
:107D60000293039B0298984700E000BF05B05DF8BE
:107D700004FB00BFE049050082B00190019B1B6835
:107D80001F2B02D84FF0A04306E0019B1B6803F0B5
:107D90001F02019B1A60024B184602B0704700BFD9
:107DA0000003005000B585B00190084611461A4600
:107DB00003468DF803300B468DF8023013468DF8DC
:107DC000013001AB1846FFF7D7FF03909DF8032061
:107DD0009DF802305B001A439DF801309B001A4366
:107DE0009DF818301B0242EA03019DF81C301B0469
:107DF000019A1943039B02F5E07243F8221000BF79
:107E000005B05DF804FB00B583B00190019B002B29
:107E10000AD04FF47A70FFF797FF019B013B019363
:107E2000019B002BF5D100E000BF03B05DF804FB1F
:107E30004FF08043D3F818341B0C03F00103002BE0
:107E400014BF01230023DBB21846704700B583B08E
:107E5000FFF7EEFF0346002B1ED04FF08043D3F810
:107E6000183503F003030193019B022B09D0019BFA
:107E7000022B08D8019B002B07D0019B012B06D0B9
:107E800001E000BF04E000BF02E000BF00E000BF6F
:107E90004FF08043D3F818344FF08043D3F80C34BC
:107EA00003F48033002B03D04FF08043D3F80C341D
:107EB00000BF03B05DF804FB08B5034B184601F0A2
:107EC00012FC00BF08BD00BFC822002008B5044B4B
:107ED00000221021184601F0B9FB00BF08BD00BF09
:107EE000C822002000B583B005F0E2FA0190019BA2
:107EF0000093009B002B04D0044AB121009801F0AC
:107F000027F800BF03B05DF804FB00BFD8470500A9
:107F100000BF704700BF704708B527F007F826F08C
:107F20005DFE29F007F829F029FA29F04DFF2BF022
:107F30000FFB2BF087FE1A4B1B680133184A1360A6
:107F4000174B1B680A2B12D9154B00221A60FFF73A
:107F5000DFFF144B1B680133124A1360114B1B687F
:107F60000A2B04D90F4B00221A60FFF7D3FF0E4BE8
:107F70001B88002B05D00C4B1B88013B9AB20A4B87
:107F80001A800A4B1B88002B05D0084B1B88013B2D
:107F90009AB2064B1A80022029F06CFB00BF08BD84
:107FA000F0230020F4230020F8230020FA230020EF
:107FB00000B583B00190FFF7AFFF00BF03B05DF8DD
:107FC00004FB000000B583B004F0F2F90190019BBE
:107FD000852B09D0019B0093009B002B04D0124AF3
:107FE000EC21009800F0B4FF002004F047FA00BF35
:107FF000FFF71EFF034683F00103DBB2002BF7D12E
:10800000002004F0A5FA00BF04F00CFB034683F047
:108010000103DBB2002BF7D104482BF01DFE00BF9B
:1080200003B05DF804FB00BFD84705001848050001
:1080300000B585B0FFF7C6FF01F0A4FA0390039BDB
:108040000293029B002B05D0104A40F20F110298B8
:1080500000F07EFF0E4A01210E4801F0D1FA039094
:10806000039B0193019B002B05D0084A4FF48971B3
:10807000019800F06DFF084B00221021184601F016
:10808000E5FA00BF05B05DF804FB00BFD847050066
:10809000B17F0200D4470500C822002000B585B09A
:1080A000002303930CE0002301930023009300239B
:1080B000012200210398FFF775FE039B0133039310
:1080C000039B1F2BEFD9202302930CE00023019385
:1080D000002300930023012200210298FFF762FE93
:1080E000029B01330293029B2F2BEFD900BF00BFED
:1080F00005B05DF804FB000000B58FB029F08AFBE5
:108100002BF080FD42482BF0A7FD42482BF0A4FD48
:10811000FFF7E8FEFFF7C2FF29F050F83E482BF0CA
:108120009BFD0220FFF76FFEFFF782FF3B482BF01D
:1081300093FD26F0A9FD002026F079FF38482BF0AA
:108140008BFD2BF0C5FD0346002B03D035482BF0EB
:1081500083FD02E034482BF07FFD4FF4FA60FFF717
:1081600052FE28F077FE2AF093FB29F0F3FD26F06B
:1081700071FFFFF76BFE6B4618462BF087FB03463B
:10818000002B2FD029482BF067FD6B460B93002363
:108190000D9320E00D9B0433194625482BF05CFD20
:1081A00000230C930EE00D9B9A000C9B13441A467F
:1081B0000B9B13441B7819461E482BF04DFD0C9B5E
:1081C00001330C930C9B032BEDDD1B482BF044FD7E
:1081D0000D9B01330D930D9B0A2BDBDD17482BF014
:1081E0003BFD02E016482BF037FD2BF023FD02206B
:1081F00029F052FA26F0AEFF28F0AAFE29F078F80E
:1082000029F0AAFA29F00AFE2AF04AFBEFE700BF9C
:108210006C4805008C480500AC480500CC480500BA
:10822000E4480500FC4805002849050054490500BC
:108230007849050084490500544805008C4905002B
:10824000B049050000B589B0059003921A460B4667
:108250008DF8133013468DF8123000230793059BD9
:10826000181D9DF812209DF813109DF828300093DA
:108270001346039A07F064F80790079B184609B065
:108280005DF804FB00B587B0039001921A460B46D7
:108290008DF80B3013468DF80A3000230593039BAD
:1082A000181D9DF80A309DF80B10019A07F070F820
:1082B0000590059B184607B05DF804FB00B585B036
:1082C000034600918DF807309DF80730002B3DD113
:1082D0009DF80720204913461B019B1A9B000B4465
:1082E0001B78052B32D19DF807201B4913461B0133
:1082F0009B1A9B000B440433009A1A609DF80720D8
:10830000154913461B019B1A9B000B4400221A704F
:1083100005F032F9034683F00103DBB2002B0CD0E9
:1083200005F0C6F80390039B0293029B002B04D038
:108330000A4AB321029800F00BFE9DF8072013466D
:108340001B019B1A9B00044A134400E000231846BB
:1083500005B05DF804FB00BFE8220020F0490500ED
:1083600000B589B0039001921A460B46ADF80A3069
:108370001346ADF808300023ADF81E30039B1B7880
:10838000052B01D1012379E0039B00221A7064E0E0
:10839000BDF80A20BDF81E301344002B00DA0F335D
:1083A0001B118DF81730BDF80A30DAB2BDF81E3057
:1083B000DBB21344DBB203F00F038DF816309DF8E7
:1083C0001630C3F11002BDF80810BDF81E30CB1AEC
:1083D0009342A8BF13468DF815309DF815300F2B2A
:1083E00026D8002306939DF8171000230022039837
:1083F00000F035F90346002B36D10023069311E037
:108400009DF81620069B1A44BDF81E10069B0B44CF
:1084100001990B4403990A4492F829201A70069B8B
:10842000013306939DF81530069A9A42E8D30CE082
:10843000BDF81E30019A1A449DF8171010230398B6
:1084400000F00DF90346002B10D19DF815309AB2BB
:10845000BDF81E301344ADF81E30BDF81E20BDF827
:1084600008309A4294D302E000BF00E000BF039BB3
:108470001B78002B14BF01230023DBB2184609B080
:108480005DF804FB00B589B0039001921A460B46D3
:10849000ADF80A301346ADF808300023ADF81E30B1
:1084A000039B1B78052B01D1012394E0039B002241
:1084B0001A707EE0BDF80A20BDF81E301344002B70
:1084C00000DA0F331B118DF81730BDF80A30DAB21D
:1084D000BDF81E30DBB21344DBB203F00F038DF89E
:1084E00016309DF81630C3F11002BDF80810BDF823
:1084F0001E30CB1A9342A8BF13468DF815309DF855
:1085000015300F2B40D8002306939DF81710002339
:108510000022039800F0A3F80346002B51D19DF8E8
:108520001730002B08D19DF81630002B04D0039B88
:108530001A7A039B83F829200023069312E0BDF8E2
:108540001E20069B1344019A1A449DF81610069BA0
:108550000B441178039A13440A4683F82920069B9A
:10856000013306939DF81530069A9A42E7D3039B90
:1085700003F129029DF817101023039800F0CBF89F
:108580000346002B0DD01FE0BDF81E30019A1A449F
:108590009DF817101023039800F0BDF80346002B38
:1085A00011D19DF815309AB2BDF81E301344ADF8C4
:1085B0001E30BDF81E20BDF808309A42FFF47AAF95
:1085C00002E000BF00E000BF039B1B78002B14BF3C
:1085D00001230023DBB2184609B05DF804FB00B5A7
:1085E00089B005900B4603928DF81330059BFE224F
:1085F0001A76059B9DF813205A76059B5868059BB3
:10860000197A059B03F11802012300930223FFF757
:1086100019FE0790079B002B04D0059B01221A70BE
:10862000012318E0059B5868059B197A059B03F107
:1086300029020123FFF726FE0790079B002B04D099
:10864000059B02221A70012305E0059B93F829205F
:10865000039B1A700023184609B05DF804FB00B5AF
:1086600089B0059003921A460B468DF813301346D5
:108670008DF8123000230793059B9DF813201A767E
:10868000059B5868059B197A059B03F11802012385
:1086900000930123FFF7D6FD0690069B002B04D024
:1086A000059B01221A70012331E0059B5868059B48
:1086B000197A059B03F129021023FFF7E3FD0690C9
:1086C000069B002B04D0059B02221A7001231EE09A
:1086D0009DF81230102B28BF10238DF81230039B09
:1086E000002B13D0002307930BE0039A079B13443E
:1086F0000599079A0A44293212781A70079B0133A8
:1087000007939DF81230079A9A42EED30023184639
:1087100009B05DF804FB00B58BB0059003921A46D2
:108720000B468DF8133013468DF8123000238DF868
:108730001B300323099300230893059B9DF8132006
:108740001A769DF81230102B28BF10238DF81230A6
:10875000002308930CE0039A089B1A44089B0133FA
:108760001178059A13440A461A76089B0133089338
:108770009DF81230089A9A42EDD39DF81230089372
:1087800008E0089B0133059A134400221A76089BDF
:1087900001330893089B0F2BF3D9059B5868059B61
:1087A000197A059B03F11802002300931123FFF7A8
:1087B00049FD0790079B002B04D0059B01221A70EE
:1087C000012337E09DF81330F72B0BD99DF81330B8
:1087D000FB2B07D8059B1B78002B14BF012300231C
:1087E000DBB227E0052026F003FA0DF11B031A4641
:1087F00006210598FFF7F3FE0346002B0CD1099BD9
:10880000013B0993099B002B07D09DF81B3003F017
:108810000203002BE6D100E000BF099B002B02D130
:10882000059B03221A70059B1B78002B14BF0123A4
:108830000023DBB218460BB05DF804FB82B00346A0
:108840008DF807309DF90730002B0CDB9DF80730C1
:1088500003F01F0205499DF907305B09012000FA6A
:1088600002F241F8232000BF02B0704700E100E0AF
:1088700082B003468DF807309DF90730002B13DBDB
:108880009DF8073003F01F0209499DF907305B0985
:10889000012000FA02F2203341F82320BFF34F8F6A
:1088A00000BFBFF36F8F00BF00BF02B0704700BFB3
:1088B00000E100E082B003468DF807309DF90730F3
:1088C000002B09DB0B4A9DF90730134493F8003362
:1088D000DBB25B09DBB20AE0074A9DF8073003F020
:1088E0000F03043B13441B7EDBB25B09DBB218466B
:1088F00002B0704700E100E000ED00E082B00190BE
:10890000019B5B68184602B0704710DF704700BFDC
:10891000184611DF704700BF1846000082B00346BA
:108920008DF807309DF907301F2B0CDC9DF90730BF
:108930000F4A22FA03F303F00103002B14BF0123B3
:108940000023DBB210E09DF907303F2B0BDC9DF9D3
:108950000730203B012202FA03F3002B14BF01234E
:108960000023DBB200E00123184602B0704700BFCD
:10897000FC06FFBD82B00190019B072B07D8EC22BB
:10898000019B42FA03F303F00103002B01D1002302
:1089900000E00123184602B07047000000B583B024
:1089A00003468DF807309DF907301846FFF7B6FFEC
:1089B0000346002B02D142F201032EE09DF907305D
:1089C0001846FFF777FF03461846FFF7D3FF034625
:1089D000002B02D142F202031FE0124B9B68002BD6
:1089E00015D09DF907305B090E4A52F823209DF8F7
:1089F000073003F01F03012101FA03F319469DF923
:108A000007305B090A43074941F8232004E09DF938
:108A100007301846FFF712FF0023184603B05DF831
:108A200004FB00BFA424002000B583B003468DF8EA
:108A300007309DF907301846FFF770FF0346002BFB
:108A400002D142F201031FE0114B9B68002B15D0AD
:108A50009DF907305B090E4A52F823109DF8073044
:108A600003F01F03012202FA03F3DA439DF90730F2
:108A70005B090A40064941F8232004E09DF90730CC
:108A80001846FFF7F5FE0023184603B05DF804FB17
:108A9000A424002000B587B003468DF8073002AB50
:108AA0001449184603F05AFB17E002AB1846FFF7CB
:108AB00025FF0590059B1B680493059B59689DF84D
:108AC0000720049B104698470346002B01D1112331
:108AD0000BE002AB184603F059FB02AB1846FFF758
:108AE0000DFF0346002BE0D10023184607B05DF8C8
:108AF00004FB00BF4C4A050000B587B003468DF863
:108B0000073002AB1149184603F028FB12E002AB14
:108B10001846FFF7F3FE0590059B1B680493059B21
:108B200059689DF80720049B1046984702AB1846E9
:108B300003F02CFB02AB1846FFF7E0FE0346002BC8
:108B4000E5D100BF00BF07B05DF804FB584A05003F
:108B500000B583B01620FFF721FF0190019B009321
:108B6000009B002B04D0044AA121009800F0F0F9EA
:108B700000BF03B05DF804FB704A050000B583B088
:108B80001620FFF751FF0190019B0093009B002BE3
:108B900004D0044AAD21009800F0DAF900BF03B018
:108BA0005DF804FB704A050000B585B0234B1B78C7
:108BB000002B01D008233CE0214B01221A70002039
:108BC000FFF768FF0346112B01D1002331E000209D
:108BD000FFF792FF1B4B1B68029300238DF80730B1
:108BE0000DF10703184600F037FE02AB1649184690
:108BF000FFF78BFE0390039B002B0CBF0123002388
:108C0000DAB20E4B1A709DF80730184600F02EFEAF
:108C1000039B002B01D0039B0BE0094B00221A7031
:108C20000A4B00221A70FFF793FF0120FFF764FF41
:108C30000023184605B05DF804FB00BFFC230020AC
:108C4000FE230020D04A05006D8F0200FD23002086
:108C500000B583B01D4B1B7883F00103DBB2002B02
:108C600001D008232EE01A4B01221A700120FFF7D1
:108C700011FF0346112B01D1002323E00220FFF74F
:108C80003BFF00238DF803300DF10303184600F07D
:108C9000E3FDFFF73EFE01900C4B00221A709DF899
:108CA0000330184600F0E2FD019B002B01D0019B30
:108CB00008E0074B00221A70FFF760FF0320FFF760
:108CC0001BFF0023184603B05DF804FBFC230020C3
:108CD000FE23002008B50B4B1B7883F00103DBB2A9
:108CE000002B01D008230AE0074B1B78002B03D090
:108CF000FFF7AEFF034602E0FFF756FF03461846B4
:108D000008BD00BFFE230020FC230020014B1B7880
:108D100018467047FC23002000B585B06B4611490A
:108D2000184603F01BFA10E06B461846FFF7E6FD05
:108D30000390039B1B680293039B5A68029B104697
:108D400098476B46184603F021FA6B461846FFF722
:108D5000D5FD0346002BE7D100BF00BF05B05DF88D
:108D600004FB00BF644A050008B5FFF7D5FF00BF4C
:108D700008BD61DF704700BF184682B00190019BBB
:108D80005B68184602B0704700B597B00190234B5E
:108D90001B7883F00103DBB2002B3AD13423ADF80A
:108DA00046300DF1460202AB11461846FFF7E1FFCF
:108DB0001590159B002B03D0159B052B22D129E084
:108DC00002AB14930FAB1649184603F0C7F911E034
:108DD0000FAB1846FFF7D1FF1390139B1B6812933C
:108DE000139B5A68129B1146149898470FAB18466C
:108DF00003F0CCF90FAB1846FFF7BFFF0346002B7B
:108E0000E6D1CBE7074A40F23B11159800F0A0F8F5
:108E100000E000BF17B05DF804FB00BFFF23002097
:108E2000D44A0500E04A050082B00190019B5B68CE
:108E3000184602B070474BDF704700BF184600006D
:108E400000B589B0019004AB1846FFF7F4FF079016
:108E5000079B002B03D0079B052B20D124E002ABFE
:108E60001349184603F07AF911E002AB1846FFF7F0
:108E7000DBFF0690069B1B680593049A069B5968C6
:108E8000059B1046984702AB184603F07FF902ABEA
:108E90001846FFF7C9FF0346002BE6D1D3E7054A82
:108EA0006B21079800F054F800BF09B05DF804FB8F
:108EB000444B0500504B050086B00390029101928F
:108EC00001238DF817309DF81730204A039B13605B
:108ED0001E4A029B53601D4A019B9360039B44F210
:108EE0000102934212D0039B44F20202934220D12A
:108EF000019B164AD360154BDB681B68134A9361CC
:108F0000124BDB685B68114AD36112E0019B0F4A88
:108F100013610E4B1B699B680C4A53610B4B1B6919
:108F20001B680A4A9361094B1B695B68074AD36156
:108F300000BF72B600BF00BF9DF81730DBB2002B38
:108F4000FAD162B600BF00BF06B07047002400200F
:108F500000B583B002900091019244F20100714685
:108F60006A4600F003F803B000BD00BF00B587B04B
:108F700003900291019272B600BF039B44F2020279
:108F8000934217D0039B44F20202934218D8039BEA
:108F900044F20102934210D0039B44F20102934237
:108FA0000ED8039B012B0DD0039B41F2010293428B
:108FB0000AD005E0019B059307E0019B049304E0C0
:108FC00000BF02E000BF00E000BF084B1B6803F0D9
:108FD0000103002B00D000BE019A02990398FFF70D
:108FE0006BFF00BF07B05DF804FB00BFF0ED00E0D1
:108FF0002DE9F04383B0144800F05CFF03460022E3
:109000001C461546114BD3E9002314EB020845EB2F
:109010000309CDE900890E4BD3E90023DDE9000106
:10902000904271EB030307D2DDE9002312F1807651
:1090300043F10007CDE90067DDE90023104619463A
:1090400003B0BDE8F08300BF2423002028240020C3
:109050003024002088B001900091019B0793009B71
:109060000693079BD3E90223CDE90423069BD3E9AA
:109070000223CDE90223DDE90423DDE90201904268
:1090800071EB03032CBF01230023DBB2184608B0A9
:1090900070470000F0B585B0019000238DF80F30C7
:1090A0003F4B1B78002B75D0019B002B72D0FFF734
:1090B0009FFF019BD3E90223904271EB030358D336
:1090C00000238DF80D300DF10D03184600F0C4FBA0
:1090D000019B1B69002B06D101994FF0FF324FF025
:1090E000FF33C1E902239DF80D30184600F0BEFBA6
:1090F000019B5B69019A92691046984700238DF89D
:109100000C3003AB184600F0A7FB019B1B69002B3A
:109110001AD0019BD3E90223B3F1FF3F08BFB2F19C
:10912000FF3F11D0019BD3E9022301990969002077
:109130000C460546161943EB0507019BC3E9026778
:1091400001238DF80E3002E000238DF80E309DF8DB
:109150000C30184600F08AFB9DF80E30002B19D019
:10916000019B19460F4803F02FF801238DF80F30AB
:1091700010E0019BD3E90223B3F1FF3F08BFB2F136
:10918000FF3F07D0019B1946064803F01DF8012355
:109190008DF80F309DF80F30184605B0F0BD00BFB8
:1091A00024240020B44B050030B58BB00190009111
:1091B0000D230993009B00221A70019BD3E902231F
:1091C000CDE90623FFF714FFDDE90623141A63EB4C
:1091D0000105CDE90445DDE90423012A73F100030B
:1091E00018DB049BB3F5350F05D300F0B7FA024640
:1091F000114B134400E0069B03934FF49603039A2C
:1092000000210E4800F062FD0990099B002B05D15A
:1092100001230EE00021094800F026FE099B0D2BDA
:1092200006D10198FFF736FF03461A46009B1A70D5
:10923000002318460BB030BDFFFFB40024230020EC
:1092400000B583B0044802F0E8FF0190019B184686
:1092500003B05DF804FB00BFB44B050000B583B05C
:10926000044802F0F0FF0190019B184603B05DF83E
:1092700004FB00BFB44B050000B583B0FFF7E0FF6F
:109280000190019B002B06D001994FF0FF324FF067
:10929000FF33C1E90223019B002BEFD100BF00BFC8
:1092A00003B05DF804FB0000054BD3E9002312F185
:1092B000807043F10001024BC3E9000100BF704719
:1092C0002824002000B583B00190084B1B68002BB8
:1092D00007D0064B1B681846FFF7DCFE034B002245
:1092E0001A6000BF03B05DF804FB00BF202400201B
:1092F00000B583B00190FFF77BFE02460B460349A1
:10930000C1E9002300BF03B05DF804FB3024002056
:1093100000B587B00190FFF7A1FF049000238DF8FE
:109320001730049B002B58D0049BD3E90223B3F1E0
:10933000FF3F08BFB2F1FF3F02D1FFF781FF54E0CA
:109340002E4B1B68002B03D101238DF817301DE035
:10935000049BD3E90201294B1B68D3E90223904205
:1093600071EB030312D201238DF81730234B1B68D6
:10937000D3E90223B3F1FF3F08BFB2F1FF3F05D0AD
:109380001E4B1B6819461E4802F01EFF9DF8173041
:10939000002B2BD0FFF754FF04900DF10F0319465B
:1093A0000498FFF701FF0346002B12D0134B1B68F4
:1093B000002B02D1019800F0CFFB104A049B1360F0
:1093C0009DF80F3083F00103DBB2002BA3D000BF68
:1093D0000FE00A4B00221A609DE7084B1B68002B28
:1093E00006D1019800F0C5FB02E094E700BF00E061
:1093F00000BF00BF07B05DF804FB00BF20240020C1
:10940000B44B050000B587B001902B4A03AB194659
:10941000104602F09CF9059045E0059B1B78022B55
:109420002BD0022B2FDC002B02D0012B11D02AE0F5
:10943000059B5B68D3E90223B3F1FF3F08BFB2F19C
:10944000FF3F22D0059B5B6819461C4802F0BCFE1A
:109450001BE0059B5A681A4B1B689A4203D1184BB4
:1094600000221A6012E0059B5B681946134802F05F
:10947000F2FE03468DF8133008E0FFF7FDFE114BB6
:1094800001221A7002E000BF00E000BF0A4A03ABED
:109490001946104602F074F9074A03AB1946104604
:1094A00002F055F90590059B002BB6D100BF00BF17
:1094B00007B05DF804FB00BF90240020B44B05000A
:1094C000202400202424002000B583B001900198BE
:1094D00000F0BDFC0346002B01D0FFF7E5FE0021A4
:1094E000019800F0D2FC0346002B02D00198FFF750
:1094F000E9FE0121019800F0C8FC0346002B02D0D0
:109500000198FFF7F5FE0198FFF77CFF0198FFF740
:10951000FFFE00BF03B05DF804FB000008B5024881
:1095200000F0D5FC00BF08BD2423002000B585B0A5
:10953000034600918DF80730114A02AB19461046D8
:1095400002F0D8F80390039B002B13D0039B9DF8E7
:1095500007201A70039B009A5A60094A02AB194609
:10956000104602F0E0F80346002B01D0FFF7D6FFCB
:10957000002300E00423184605B05DF804FB00BF9B
:109580009024002000B583B0164B1B68009316484A
:1095900008235822154902F07AF80190019B002B0C
:1095A00001D0019B19E06B46114A1946114800F0A1
:1095B0008BFA0190019B002B01D0019B0DE0012152
:1095C0000C4800F033FC01230B4A0121094800F04C
:1095D000DDFA0A4B01221A70019B184603B05DF8B0
:1095E00004FB00BFC04B050090240020382400205D
:1095F000C994020024230020FFFF7F0024240020C0
:1096000086B003900B4601928DF80B30019B002B26
:1096100001D1072317E0039B1B68059305994FF0C1
:10962000FF324FF0FF33C1E90223059B019A5A61D3
:109630009DF80B30012B0CBF01230023DBB21A462F
:10964000059B1A610023184606B07047F0B589B033
:10965000039002910192039B069300238DF817302B
:109660000DF11703184600F0F7F8069BD3E9022323
:10967000B3F1FF3F08BFB2F1FF3F11D1FFF7B8FCD4
:1096800002460B46029900200C460546161943EB8C
:109690000507069BC3E9026701238DF81F3002E02E
:1096A00000238DF81F309DF81730184600F0DEF8C3
:1096B0009DF81F3083F00103DBB2002B01D00023A3
:1096C0000EE0069B019A9A61069B1B69002B02D053
:1096D000069B029A1A6106990020FFF727FF0346AE
:1096E000184609B0F0BD00B587B00190019B049306
:1096F00000238DF80F300DF10F03184600F0ACF881
:10970000049BD3E90223B3F1FF3F08BFB2F1FF3F4F
:1097100003D100238DF8173009E004994FF0FF3290
:109720004FF0FF33C1E9022301238DF817309DF874
:109730000F30184600F09AF89DF8173083F00103B7
:10974000DBB2002B01D0002304E004990120FFF7D5
:10975000EDFE0346184607B05DF804FB08B5034864
:1097600000F0A8FB0346184608BD00BF24230020D4
:1097700082B0EFF310830093009B019372B600BF99
:10978000019B184602B0704762B600BF00BF704729
:1097900000B585B00190FFF7EBFF0390164B9B6877
:1097A000002B1BD1144B01229A60144BD3F880205C
:1097B000134B1340104A1360104B114AC3F880201A
:1097C0000E4BD3F884300C4A53600C4B4FF0FF32F1
:1097D000C3F88420019B00221A7002E0019B012241
:1097E0001A70039B002B01D1FFF7CEFF0023184610
:1097F00005B05DF804FB00BFA424002000E100E0F8
:10980000FC06FFBD00B585B003468DF80730104B50
:109810009B68002B16D09DF80730002B12D1FFF764
:10982000A7FF03900B4A0A4B1B681360094A084BB9
:109830005B685360064B00229A60039B002B01D1AA
:10984000FFF7A2FF0023184605B05DF804FB00BF38
:10985000A424002000E100E000B583B0019001984D
:10986000FFF796FF00BF03B05DF804FB00B583B0BF
:1098700003468DF807309DF807301846FFF7C2FF02
:1098800000BF03B05DF804FB82B003468DF80730DB
:109890009DF90730002B0CDB9DF8073003F01F0209
:1098A00005499DF907305B09012000FA02F241F8F1
:1098B000232000BF02B0704700E100E082B0034601
:1098C0008DF807309DF90730002B0DDB9DF8073030
:1098D00003F01F0206499DF907305B09012000FAD9
:1098E00002F2403341F8232000BF02B0704700BFAE
:1098F00000E100E082B0034600918DF807309DF949
:109900000730002B0ADB009BDAB20C499DF90730C7
:109910005201D2B20B4483F800230BE0009BDAB271
:1099200007499DF8073003F00F03043B5201D2B200
:109930000B441A7600BF02B0704700BF00E100E0A0
:1099400000ED00E000B583B003460A468DF807300D
:1099500013468DF806309DF806209DF90730114614
:109960001846FFF7C7FF00BF03B05DF804FB00B562
:1099700083B003468DF807309DF907301846FFF78E
:1099800083FF00BF03B05DF804FB000000B585B0A5
:109990000190019B002B0AD0074B43F00103039376
:1099A000019B9B010293039B0298984700E000BF34
:1099B00005B05DF804FB00BFD04B050084B00390F8
:1099C00002910192039B029A02F5A872019943F851
:1099D000221000BF04B0704782B001900091019B3B
:1099E000009A02F5A87253F82230184602B0704768
:1099F00082B001900091019B009AC3F8042300BF3C
:109A000002B0704782B001900091019B009AC3F8A8
:109A1000082300BF02B0704782B001900B46ADF83A
:109A20000230BDF80230019A13441B68184602B098
:109A3000704784B001900B46ADF80230BDF802309B
:109A4000019A134400221A60BDF80230019A1344AF
:109A50001B680393039B00BF04B0704782B0019062
:109A6000019BD3F80435184602B0704782B00190CC
:109A70000091019B009AC3F8082500BF02B070470F
:109A800082B001900B468DF803309DF80320019BB6
:109A900013441A460123136000BF02B0704782B01E
:109AA00001900091019B009AC3F8442300BF02B0CB
:109AB000704782B001900091019B009AC3F848233F
:109AC00000BF02B07047000000B587B0039002915C
:109AD0000192039B5B7919461D4A019B42F8213094
:109AE000039B5B791B4ADB0013441B79002B03D0DB
:109AF00008230593059B27E0039B1A68029B1B889C
:109B000019461046FFF7B2FF039B93F90420029B0E
:109B10009B7819461046FFF715FF039B93F9043015
:109B20001846FFF724FF039B5B790A4ADB001344C6
:109B300001221A71039B5B791946064A039B42F87E
:109B4000313000230593059B184607B05DF804FBF0
:109B5000B0240020B824002000B583B00190019B00
:109B60001B6800211846FFF78BFF00BF03B05DF8AC
:109B700004FB00B583B00190019B1B6804211846CB
:109B8000FFF77EFF00BF03B05DF804FB00B587B0B0
:109B90000390029101928DF803304FF48032029BC2
:109BA00002FA03F30593029B50339BB29B00ADF87E
:109BB0001230019B23F07F430193039B1B6805999F
:109BC0001846FFF71FFF039B1B6805991846FFF710
:109BD00070FF039B1B68BDF8122011461846FFF763
:109BE00028FF039B1B68019A02991846FFF7E6FEBF
:109BF000039B1B6805991846FFF751FF9DF803303A
:109C0000002B05D0039B1B6805991846FFF7F0FE53
:109C100000BF07B05DF804FB00B585B0039002916A
:109C200013468DF80730039B1B6802991846FFF70F
:109C300036FF9DF80730002B05D0039B1B68029967
:109C40001846FFF7D5FE00BF05B05DF804FB00B570
:109C500083B001900091019B1B6800991846FFF7A3
:109C600028FF019B1B6800991846FFF7CBFE00BF39
:109C700003B05DF804FB00B583B001900B46ADF86E
:109C80000230019B1B68BDF8022011461846FFF701
:109C9000C3FE0346002B09D0019B1B68BDF80220C0
:109CA00011461846FFF7C5FE012300E000231846C1
:109CB00003B05DF804FB82B001900091019A009B13
:109CC000D31A23F07F43184602B0704700B58BB01B
:109CD00003900291019200934FF48032029B02FAAA
:109CE00003F30993029B50339BB29B00ADF82230E3
:109CF000019B23F07F43019309990398FFF7A7FF86
:109D0000039B1B681846FFF7A9FE0790039B1B687F
:109D100002991846FFF760FE0690039B1B68079A9E
:109D200002991846FFF74AFE039B1B68BDF82220E4
:109D300011461846FFF77DFE07990698FFF7BBFF0F
:109D40000346012B0AD11020FFF720FE039B1B685E
:109D5000BDF8222011461846FFF76BFE039B1B68D7
:109D60001846FFF77BFE079007990198FFF7A3FFBE
:109D70000590039B1B6809991846FFF790FE059B09
:109D8000012B15D1039B1868019B01331A460299D8
:109D9000FFF714FE1020FFF7F9FD039B1B68184620
:109DA000FFF75CFE0246079B934235D00D2339E056
:109DB000039B1B68019A02991846FFF7FFFD039B5E
:109DC0001B681846FFF74AFE0790019B013B079965
:109DD0001846FFF770FF0590009BC3F1FF1303F5D2
:109DE0007F43059A9A4201D90D231BE0059B002B66
:109DF00012D1039B1868019B01331A460299FFF7A1
:109E0000DDFD039B1B681846FFF728FE0246079BF3
:109E1000934201D00D2305E0012209990398FFF731
:109E2000FBFE002318460BB05DF804FB00B583B0C1
:109E300001900B468DF803309DF803301A4602213D
:109E40000198FFF7E9FE00BF03B05DF804FB00B521
:109E500083B001904FF482710198FFF70CFF034625
:109E6000184603B05DF804FB00B583B00190009183
:109E70004FF48032009B02FA03F319460198FFF772
:109E8000E6FE00BF03B05DF804FB00B585B00190AD
:109E90000091009B50339BB29B00ADF80E30BDF893
:109EA0000E3019460198FFF7E6FE0346184605B046
:109EB0005DF804FB00B583B00190019B1B68184658
:109EC000FFF7CCFD0346184603B05DF804FB00B570
:109ED00083B00190019B93F904301846FFF7EEFC24
:109EE00000BF03B05DF804FB08B5044B1B68044ACF
:109EF00012681046984700BF08BD00BFB02400207C
:109F0000B824002008B5044B5B68044A92681046E8
:109F1000984700BF08BD00BFB0240020B82400202F
:109F200082B00190019B03F00303002B0CBF0123BF
:109F30000023DBB2184602B07047000000B585B0C0
:109F40000190002303930EE00B4A039B52F8233049
:109F5000002B05D0084A039B52F8233001989847FC
:109F6000039B01330393039B032BEDD900BF00BF79
:109F700005B05DF804FB00BFD424002082B001903E
:109F80000091019B1B78013B052B61D801A252F87F
:109F900023F000BFAD9F0200B59F0200DB9F0200CF
:109FA0000DA002002DA0020049A00200009B00228B
:109FB0001A704EE0009B01221A70019B1A89009BC7
:109FC0009A81019B9A88009BDA81019BDA68009B49
:109FD0009A60009B00221A743BE0009B02221A70D8
:109FE000019B1A89009B9A81019B9A88009BDA81C8
:109FF000019BDA68009B9A60019B9B7D062B0CBF3E
:10A0000001230023DAB2009B1A7422E0009B032292
:10A010001A70019BDA88009B9A81019B1A89009B28
:10A02000DA81019BDA68009B9A6012E0009B0422AF
:10A030001A70019BDA88009B9A81009B0022DA81CA
:10A04000009B00229A6004E0009B05221A7000E049
:10A0500000BF00BF02B0704784B001900091019B27
:10A060000393039A009B9A4206D2039B1B68B3F1A9
:10A07000FF3F01D0012300E0002303F00103DBB226
:10A08000184604B0704782B00190019B5B8803338F
:10A090009B00019A1344184602B0704700B583B084
:10A0A000019000910198FFF7EEFF0246009B93425A
:10A0B00001D2022311E0019B9B884FF6FF7293426D
:10A0C00008D0019B1B88002B04D0019B9B68B3F137
:10A0D000FF3F01D1012300E00023184603B05DF8E3
:10A0E00004FB000000B583B00190019B002B13D04E
:10A0F0000D4BDB681A46019B93420DD30A4B1B693B
:10A100001A46019B934207D80198FFF709FF0346BF
:10A11000002B01D0012300E0002303F00103DBB298
:10A12000184603B05DF804FB7022002082B003469D
:10A130000A46ADF806301346ADF80430BDF80620E7
:10A14000134913469B0013449B000B4408331A88A1
:10A15000BDF804301344ADF80430BDF806200C49B6
:10A1600013469B0013449B000B440A331A88BDF826
:10A1700004301344ADF80430BDF80430B3F5806FFB
:10A1800094BF01230023DBB2184602B0704700BF22
:10A19000F824002084B00190009148F209630393F1
:10A1A0000023ADF80A3027E0BDF80A20164913460F
:10A1B0009B0013449B000B4404331B68009A9A4293
:10A1C00015D9BDF80A20104913469B0013449B0083
:10A1D0000B4404331B6803F58053009A9A4206D25D
:10A1E00000230393019BBDF80A201A8008E0BDF804
:10A1F0000A300133ADF80A30BDF80A30012BD3D94B
:10A20000039B184604B07047F824002082B00190E8
:10A210000091009B9B7D022B09D9019B1A89009B11
:10A22000DB8813449BB203339AB2019B1A81019BD2
:10A230005A89009BDB88D31A9BB2033B9AB2019BDD
:10A240005A8100BF02B0704700B583B0074B1B684E
:10A250001946002300930823054A064801F017FC1D
:10A260000346184603B05DF804FB00BF202500201C
:10A27000D84B05007022002000B585B003900399EB
:10A28000002300930823044A044801F000FC03461D
:10A29000184605B05DF804FBE04B05007022002075
:10A2A00000B585B003460091ADF8063000238DF867
:10A2B0000F30BDF806300333ADF80A30BDF80A3070
:10A2C00040F2FE32934202D948F208634BE0002389
:10A2D000ADF80C303BE0BDF80C20254913469B003F
:10A2E00013449B000B441B78002B2BD1BDF80A2094
:10A2F000BDF80C3011461846FFF718FF0346002B37
:10A3000020D001238DF80F30009BBDF80C201A805F
:10A31000BDF80C20164913469B0013449B000B44C8
:10A320000A331988BDF80C20BDF80A300B4498B2E6
:10A330000F4913469B0013449B000B440A3302460B
:10A340001A8008E0BDF80C300133ADF80C30BDF8D0
:10A350000C30012BBFD99DF80F30002B01D000230A
:10A3600001E048F20663184605B05DF804FB00BF43
:10A37000F824002082B003460A46ADF806301346A2
:10A38000ADF80430BDF804200D4913469B0013447A
:10A390009B000B440A331A88BDF80630D31A9BB2CF
:10A3A000BDF80420033B98B2054913469B001344B3
:10A3B0009B000B440A3302461A8000BF02B070476C
:10A3C000F824002008B50121024801F030FB0346C3
:10A3D000184608BDE424002000B585B0034600916E
:10A3E000ADF80630BDF80620244913469B001344FF
:10A3F0009B000B4404331B6803F580530293009BBE
:10A400001B680393039B002B04D00398FFF73BFECC
:10A41000039026E0BDF80620184913469B0013441C
:10A420009B000B4404331B680833039319E0029923
:10A430000398FFF733FE0346022B10D0022B10DCEB
:10A44000002B02D0012B05D00BE0009B039A1A6071
:10A4500001230EE00398FFF716FE039001E00023AE
:10A4600007E002990398FFF7F7FD0346002BDED1C2
:10A470000023184605B05DF804FB00BFF824002057
:10A4800000B585B001900091019B5B681846FFF70D
:10A4900029FE0346002B19D0019B1A89244B1B89E6
:10A4A0009A4213D1019B1A68019B5B689B689A4290
:10A4B0000CD1019B5B6819460098FFF76BFE0346C1
:10A4C000002B0CBF01230023DBB22CE0009B0022F9
:10A4D0001A8023E00023029310E0029B0393039B66
:10A4E0009A68019B1B689A4208D1029A019B5A60A4
:10A4F0000F4B1A89019B1A81012314E0009B1B88D2
:10A5000002AA11461846FFF767FF0346002BE4D165
:10A51000009B1B8801339AB2009B1A80009B1B880A
:10A52000012BD7D90023184605B05DF804FB00BF06
:10A530002825002000B587B0039002910192009376
:10A54000324B1B78DBB283F00103DBB2002B02D06D
:10A5500048F2016355E0019B002B02D0009B002BC9
:10A5600049D148F204634CE0009B9B881946284A75
:10A570000B469B000B449B0013441B78002B33D1EC
:10A5800024E0009B1B680593039B002B06D0059BD2
:10A590009A88039B1B889A4200D017E0029B002BED
:10A5A00006D0059B1A88029B1B889A4200D00DE0BA
:10A5B000059B9A68019B1A60009B1A68019B5A6070
:10A5C000144B1A89019B1A8100231AE0009B9B8877
:10A5D000009A11461846FFF7FFFE0346002BD0D124
:10A5E000009B00221A6000E000BF009B9B880133A3
:10A5F0009AB2009B9A80009B9B88012BB4D948F2A9
:10A600000963184607B05DF804FB00BFC8240020AA
:10A61000F82400202825002000B585B00190084BC3
:10A620000199184601F066F803901C220021039856
:10A6300029F0FAFC039B184605B05DF804FB00BF47
:10A64000E824002000B583B00190044B019918461E
:10A6500001F069F800BF03B05DF804FBE8240020B6
:10A6600000B583B00190054B0199184601F06FF8D1
:10A670000346184603B05DF804FB00BFE824002041
:10A6800000B583B00190044B0199184601F078F8A9
:10A6900000BF03B05DF804FBE824002008B50121E9
:10A6A000054801F0DCF90346002B14BF0123002309
:10A6B000DBB2184608BD00BFD024002000B587B02B
:10A6C00003900291039B02229A750299039B1A1D23
:10A6D000002300930423074801F0D9F90590059B56
:10A6E000002B01D1002301E048F20D63184607B0AA
:10A6F0005DF804FB7022002000B587B00390029142
:10A70000039B1B69002B01D0032200E00122039B65
:10A710009A75029B08331946039B03F10C02002330
:10A7200000930423074801F0B2F90590059B002B24
:10A7300001D1002301E048F20D63184607B05DF82F
:10A7400004FB00BF7022002000B587B00390029187
:10A75000039B1B78032B01D1052200E00622039BFB
:10A760009A75029B04331946039B03F108020023E8
:10A7700000930423074801F08AF90590059B002BFC
:10A7800001D1002301E048F20D63184607B05DF8DF
:10A7900004FB00BF7022002000B587B003900B4679
:10A7A000ADF80A3003990023009304230D4A0E48A4
:10A7B00001F06DF90590059B002B02D048F20D6366
:10A7C0000BE0BDF80A20094913469B0013449B0087
:10A7D0000B44103301221A700023184607B05DF8AD
:10A7E00004FB00BFE84B050070220020F824002085
:10A7F00000B589B0019002AB00221A605A609A60DD
:10A80000019BDB6802930DF1160202AB114618465C
:10A81000FFF736FE0346002B12D0039B0693069BE0
:10A820009A88019BDA80069B1A88019B1A81039BF8
:10A83000BDF8162011461846FFF7AEFF079002E05C
:10A8400048F209630793079B184609B05DF804FBBB
:10A8500000B587B00190019B981D02AA0D4B002105
:10A86000FFF768FE0590059B002B08D1039B094A62
:10A87000928811461846FFF78FFF059004E00822E2
:10A880000021044829F0D0FB059B184607B05DF86D
:10A8900004FB00BF3825002000B587B0039002916B
:10A8A000039B01229A75029B0C331846039B1A697D
:10A8B000039BDB889B00002100910146074801F0C3
:10A8C000E6F80590059B002B01D1002301E048F23A
:10A8D0000D63184607B05DF804FB00BF702200202E
:10A8E00082B0184B1B8901339AB2164B1A81154B53
:10A8F00000225A80134B00221A730023ADF8063051
:10A9000018E0BDF80620104913469B0013449B0035
:10A910000B441A78BDF80630002A0CBF0122002231
:10A92000D1B2084A13440A469A72BDF80630013380
:10A93000ADF80630BDF80630012BE2D900BF00BFEC
:10A9400002B0704728250020F824002084B0019030
:10A9500000238DF80F300023ADF80C3031E0BDF846
:10A960000C301C4A13449B7A002B25D0BDF80C30C8
:10A97000184A134400229A72BDF80C201649134657
:10A980009B0013449B000B440C331B68002B13D11A
:10A99000BDF80C20104913469B0013449B000B4448
:10A9A00010331B78002B07D0019BBDF80C201A80B8
:10A9B00001238DF80F3008E0BDF80C300133ADF8FD
:10A9C0000C30BDF80C30012BC9D99DF80F3018465A
:10A9D00004B0704728250020F824002008B5084B53
:10A9E00005221A70074B02229A80064B1B681946F3
:10A9F00000230122044801F09BF80346184608BDD5
:10AA000028250020202500207022002000B583B0DA
:10AA1000164B5B88ADF80230BDF80220144913468E
:10AA20009B0013449B000B440C331B68002B14D178
:10AA30000E4B04221A70BDF802200D4913469B00EC
:10AA400013449B000B4404331B6819460023012266
:10AA5000084801F06DF8019002E0FFF7BFFF019098
:10AA6000019B184603B05DF804FB00BF28250020B9
:10AA7000F82400207022002000B587B0104B5B68DE
:10AA80000593104B1A680F4B9B889B00134404934B
:10AA9000059B5B880333ADF80E30094B03221A7017
:10AAA0000499074B5A68BDF80E309B0000200090B7
:10AAB000054800F0ECFF0346184607B05DF804FBBC
:10AAC00028250020202500207022002000B583B01A
:10AAD0000A4B5B880A491846FFF77EFC0346002BA9
:10AAE00003D0FFF7C9FF019002E0FFF78FFF01904D
:10AAF000019B184603B05DF804FB00BF2825002029
:10AB00002C25002008B50A4B06221A70084B5B88DA
:10AB10001946084A0B469B000B449B001344043320
:10AB20001B681846FFF7A8FB0346184608BD00BF80
:10AB300028250020F824002008B5054B07221A70AC
:10AB4000034B00225A60FFF77FFB0346184608BDFF
:10AB50002825002008B50D48FFF7F8FE034683F0CE
:10AB60000103DBB2002B0BD0094B00221A70084BFB
:10AB700000225A80064B00225A6041F61D5302E023
:10AB8000FFF7A4FF0346184608BD00BF2A25002092
:10AB90002825002082B0094B5B680193019B5B88EC
:10ABA0000333ADF80230064B9A88BDF802301344E7
:10ABB0009AB2034B9A8000BF02B07047282500204C
:10ABC0002025002082B01E4B1B6801931D4B5B8823
:10ABD00019461D4A0B469B000B449B00134404334B
:10ABE0001B68174A1360174B5B881946164A0B46B9
:10ABF0009B000B449B0013440433019A1A60114BD1
:10AC00005B8819460E4B98880F4A0B469B000B44F5
:10AC10009B001344083302461A80094B02229A8093
:10AC2000084B5B881946084A0B469B000B449B0067
:10AC30001344103300221A7000BF02B0704700BFE7
:10AC40002025002028250020F824002008B51A4BD4
:10AC50001B78072B2CD801A252F823F07DAC020000
:10AC6000B1AC0200B1AC020089AC020095AC0200AC
:10AC7000A1AC0200A1AC0200A9AC0200FFF730FEBB
:10AC80000D4B01221A7014E0FFF784FF0A4B0222D9
:10AC90001A700EE0FFF796FF074B06221A7008E0C5
:10ACA000054B07221A7004E0034B01221A7000E0E2
:10ACB00000BF00BF08BD00BF2825002000B587B039
:10ACC0000190009148F20E630593019B002B05D083
:10ACD000624B00225A604FF40643BAE0009B1B7996
:10ACE000032B00F2A98001A252F823F0FDAC020070
:10ACF0000BAD020099AD0200B9AD0200009B01222C
:10AD00001A71FFF7A1FA059099E000238DF813302E
:10AD10000023ADF810302BE0BDF810205049134649
:10AD20009B0013449B000B441B78022B1BD1BDF8E6
:10AD300010204B4913469B0013449B000B440022F8
:10AD40001A7001238DF81330BDF8102044491346C2
:10AD50009B0013449B000B4404331B681846FFF709
:10AD60008BFA059008E0BDF810300133ADF81030D3
:10AD7000BDF81030012BCFD99DF8133083F00103BB
:10AD8000DBB2002B5AD0354B01221A70334B002214
:10AD90005A6041F61D535CE0009B00221A71314B52
:10ADA00002229A802F4B1B681946002301222E484D
:10ADB00000F0BEFE059042E0009B00221A712B4B72
:10ADC0005B88ADF80E30274B1B680293BDF80E2050
:10ADD000234913469B0013449B000B4404331B6818
:10ADE000204A1360BDF80E201D4913469B001344F2
:10ADF0009B000B440433029A1A60BDF80E20194BD5
:10AE00009888174913469B0013449B000B44083352
:10AE100002461A80134B02229A80BDF80E20104978
:10AE200013469B0013449B000B4400221A700298A7
:10AE3000FFF722FA059002E000BF00E000BF059B8B
:10AE4000002B05D0054B00225A6048F20D6300E04C
:10AE50000023184607B05DF804FB00BFC82400209B
:10AE6000F824002020250020702200202825002022
:10AE700000B587B001900091009B9B8A1A4613464B
:10AE80009B0013449B003B4A13440493019B002BFB
:10AE900006D000990498FFF7B9F94FF4064364E02F
:10AEA000049B5A68049B1B899B0013440393009BDB
:10AEB0009B7D062B4DD801A252F823F001AF020072
:10AEC00025AF02000DAF020019AF0200D9AE02009B
:10AED00031AF02004BAF0200274B00225A60009BAB
:10AEE0009B69254A136025492348FFF7C9FA0346A1
:10AEF00083F00103DBB2002B02D048F2096334E097
:10AF000003990098FFF7DAFB059026E00399009873
:10AF1000FFF7F2FB059020E003990098FFF7BCFCD7
:10AF200005901AE003990098FFF70EFC059014E0D5
:10AF3000009B06229A75104B5B68104A12881146D6
:10AF40001846FFF729FC059007E041F61D530593CD
:10AF500003E048F20E63059300BF059B002B03D06E
:10AF600000990498FFF752F9059B184607B05DF861
:10AF700004FB00BFF8240020402500204C250020C1
:10AF800000B585B001900091019B002B02D04FF4D9
:10AF9000064329E0009B1B79022B1BD0022B1DDCF2
:10AFA000002B02D0012B08D018E0009B02221A715E
:10AFB0000098FFF71DFC039015E00098FFF748FC90
:10AFC0000390039B48F2096293420BD141F61D5353
:10AFD000039307E041F61D53039304E048F20E6328
:10AFE000039300E000BF039B184605B05DF804FB27
:10AFF00000B585B00190019B002B02D04FF40643B1
:10B000003DE0214B1B7B002B03D01F4B00221A730A
:10B0100001E0FFF71BFE1C4B1B78013B062B29D8D8
:10B0200001A252F823F000BF45B002004DB002006B
:10B0300055B002005DB0020075B0020065B00200BC
:10B040006DB00200FFF786FD039017E0FFF73EFDAD
:10B05000039013E0FFF710FD03900FE0FFF7D6FC1D
:10B0600003900BE0FFF74EFD039007E0FFF764FD50
:10B07000039003E048F20E63039300BF039B18465E
:10B0800005B05DF804FB00BF2825002000B589B09D
:10B0900001903B4B1B68002B05D13A48FFF7E0FAC3
:10B0A0000346374A1360364B1B681B78013B052B60
:10B0B0002BD801A252F823F0D1B00200E1B0020077
:10B0C000E1B00200F1B00200F1B0020001B10200F3
:10B0D0002B4B1B6819460198FFF7F0FD019018E013
:10B0E000274B1B6819460198FFF7C2FE019010E03C
:10B0F000234B1B6819460198FFF742FF019008E0B7
:10B100000198FFF775FF019003E048F20E63019389
:10B1100000BF019B002B2BD003AB00221A605A60AA
:10B120009A60DA601A61019B41F61D52934201D088
:10B13000019B00E000230493114B1B6803AA1146F6
:10B140001846FEF71BFF03AB1846FEF7F7FE0C4B45
:10B1500000221A60002301930A48FFF791FAFFF7D3
:10B160009DFA034683F00103DBB2002B02D190E786
:10B1700000BF00E000BF00BF09B05DF804FB00BFE6
:10B18000502500205425002008B50121054800F075
:10B1900036FC0346002B02D10020FFF777FF00BFEB
:10B1A00008BD00BFD024002000B583B00190019BF2
:10B1B0005B681846FFF76AFF00BF03B05DF804FB49
:10B1C00000B58BB00390029101928DF803300023FB
:10B1D000ADF824300023ADF82630534B1B78DBB29A
:10B1E00083F00103DBB2002B02D048F2016397E049
:10B1F000029B002B02D148F2046391E0029B1B8862
:10B200004FF6FF72934203D0029B5B88002B02D162
:10B2100048F2036384E0029B5B681846FEF780FEF9
:10B22000034683F00103DBB2002B02D048F2026335
:10B2300076E0019B002B11D1029B9B68ADF8263074
:10B240000DF11A02BDF8263011461846FFF728F80E
:10B250000890089B002B09D0089B61E0019B1B888C
:10B26000ADF81A30019B5B88ADF8263005AB184667
:10B27000FFF7D2F90790079B002B0AD1BDF81A20DF
:10B28000BDF8263011461846FFF774F848F20763F8
:10B2900046E0079B9DF803201A70079B00229A75D1
:10B2A000BDF81A20079B9A82029B5A68079B1A6175
:10B2B000FFF788F80246079BDA60029B1A88079B13
:10B2C0001A81029B5A88079B9A80079BBDF826200B
:10B2D000DA809DF80330032B06D1079B04229A7570
:10B2E000039B1A68079B9A61079BBDF824205A812B
:10B2F00005AB1846FFF7A6F9039B002B0DD0039B67
:10B3000000225A60079BDA68039B1A60039B0022A5
:10B310009A72064B1A89039B1A81FFF735FF0023A7
:10B3200018460BB05DF804FBC82400202825002037
:10B3300000B585B001900091019B002B02D0009BCD
:10B34000002B02D148F204632AE00DF10A031946EA
:10B350000198FFF795F80346002B1FD0019B5B680F
:10B360000393BDF80A301A4613469B0013449B0012
:10B3700008330D4A134404330121184600F057FBEB
:10B38000009B039A1A60019B5B6803F10C02009B0F
:10B390005A60019B01229A72002301E048F209637E
:10B3A000184605B05DF804FBF824002000B585B010
:10B3B0000190019B002B02D148F204633BE00DF1A8
:10B3C0000A0319460198FFF75BF80346002B2ED0BD
:10B3D000BDF80A3019461A4A0B469B000B449B00E5
:10B3E00013440C331B68002B1DD0019B9B7A002B50
:10B3F00019D0BDF80A301A46114913469B00134470
:10B400009B000B440C331B68591E0D4813469B00D0
:10B4100013449B0003440C331960019B00229A7271
:10B420000023039306E048F20563039302E048F229
:10B4300009630393039B184605B05DF804FB00BF46
:10B44000F824002000B583B001900091022300226F
:10B4500000990198FFF7B4FE0346184603B05DF863
:10B4600004FB00B583B001900091019B002B02D139
:10B4700048F2046306E00323002200990198FFF7D5
:10B480009FFE0346184603B05DF804FB00B585B087
:10B490000346ADF806301A4B1B78DBB283F001038C
:10B4A000DBB2002B02D048F2016324E0BDF8063085
:10B4B0004FF6FF72934202D148F203631BE002ABE6
:10B4C0001846FFF7A9F80390039B002B02D148F21E
:10B4D000076310E0039B05221A70039B01221A7177
:10B4E000039BBDF80620DA8002AB1846FFF7AAF8E6
:10B4F000FFF74AFE0023184605B05DF804FB00BFC5
:10B50000C824002000B585B0029201930346ADF82F
:10B510000E300B46ADF80C3003A90DF10E00019B67
:10B52000029AFFF707F80346184605B05DF804FBDA
:10B5300000B585B0034602910192ADF80E300DF1D1
:10B540000E01019B029A0020FEF7F4FF0346184605
:10B5500005B05DF804FB00B585B003460291019289
:10B56000ADF80E300DF10E00019B029A0021FEF79E
:10B57000E1FF0346184605B05DF804FB82B0019078
:10B580000091019B002B02D0009B002B02D148F2BE
:10B59000046304E0019B1A68009B1A6000231846AC
:10B5A00002B0704786B001900091019B53E8011FE3
:10B5B0008AB2D88902449889824228BF121A18890F
:10B5C000824202BFBFF32F8F002307E0C2EA0102CD
:10B5D00043E801200028E9D14FF001038DF80F3036
:10B5E000059002910492029A009B1A609DF80F3018
:10B5F000DBB2184606B0704784B00190019951E85B
:10B60000013FC3EA034341E80132002AF7D1039224
:10B61000029300BF04B0704786B001900091019B77
:10B6200053E8021F1FFAA1F2D888824202BFBFF37B
:10B630002F8F00230DE0D88902449889824228BFC9
:10B64000121AC1EA024243E802200028E8D14FF072
:10B6500001038DF80F30059002910492029A009B2D
:10B660001A609DF80F30DBB2184606B0704784B000
:10B670000190019951E8023FC3EA234341E80232B5
:10B68000002AF7D10392029300BF04B0704784B040
:10B690000390029111461A460B46ADF80630134648
:10B6A000ADF80430029B002B01D10E231FE0BDF842
:10B6B0000630BDF80420B3FBF2F101FB02F29B1A45
:10B6C0009BB2002B01D0092311E0039B029A1A6060
:10B6D000039B00225A60039B00229A60039BBDF8E3
:10B6E00006209A81039BBDF80420DA8100231846C6
:10B6F00004B0704700B585B001900091009B1946D9
:10B700000198FFF74FFF0346002B07D0019B1B68F2
:10B71000009A128813440393039B00E00023184609
:10B7200005B05DF804FB00B583B001900091009B6B
:10B730001A88009B5B889A4204D10198FFF75CFF4E
:10B74000012300E00023184603B05DF804FB00B5B8
:10B7500085B001900091009B19460198FFF75CFFAE
:10B760000346002B07D0019B1B68009A52881344A4
:10B770000393039B00E00023184605B05DF804FB2B
:10B7800000B583B001900091009B1A88009B5B88F4
:10B790009A4204D10198FFF76AFF012300E00023D9
:10B7A000184603B05DF804FB00B585B00190009128
:10B7B000009B5B099B00019A1A44009B03F01F0346
:10B7C000012101FA03F31946104600F0E8F803904E
:10B7D00000BF05B05DF804FB00B583B00190009197
:10B7E000009B5B099B00019A1A44009B03F01F0316
:10B7F000012101FA03F31946104600F0B8F8024699
:10B80000009B03F01F0322FA03F303F00103002B54
:10B8100014BF01230023DBB2184603B05DF804FB1C
:10B8200000B585B001900091009B5B099B00019AD7
:10B830001A44009B03F01F03012101FA03F3DB43C9
:10B840001946104600F0C3F8039000BF05B05DF83C
:10B8500004FB82B001900091009B5B099B00019A60
:10B8600013441A68009B03F01F0322FA03F303F04A
:10B870000103002B14BF01230023DBB2184602B0E2
:10B88000704700B58DB00190009100230B934BE001
:10B890000B9B9B00019A13441B68DB430793079B98
:10B8A00093FAA3F30693069B0893089B002B01D100
:10B8B000202303E0089BB3FA83F3DBB20A932BE067
:10B8C0000B9B5B010A9A13440993099A009B9A42C5
:10B8D00026D209990198FFF77FFF034683F0010301
:10B8E000DBB2002B01D0099B26E00B9B9B00019A49
:10B8F00013441B68DB430493049B93FAA3F3039361
:10B90000039B0593059B002B01D1202303E0059B9E
:10B91000B3FA83F3DBB20A930A9B1F2BD0D900E062
:10B9200000BF0B9B01330B93009B013B5B09013371
:10B930000B9A9A42ACD3009B18460DB05DF804FBFD
:10B9400010B487B001900091019B009A53E8004F1A
:10B95000104643E8000191F0000FF7D105940490E0
:10B960000391059B184607B05DF8044B704710B46F
:10B9700087B001900091019B009A53E8004F44EA80
:10B98000020043E8000191F0000FF6D10594049005
:10B990000391059B184607B05DF8044B704710B43F
:10B9A00087B001900091019B009A53E8004F44EA50
:10B9B000020043E8000191F0000FF6D105940490D5
:10B9C0000391049B184607B05DF8044B704710B410
:10B9D00087B001900091019B009A53E8004F04EA60
:10B9E000020043E8000191F0000FF6D105940490A5
:10B9F0000391049B184607B05DF8044B704710B4E0
:10BA000087B001900091019B009A53E8004F04EB2E
:10BA1000020043E8000191F0000FF6D10594049074
:10BA20000391059B184607B05DF8044B704710B4AE
:10BA300087B001900091019B009A53E8004F04EBFE
:10BA4000020043E8000191F0000FF6D10594049044
:10BA50000391049B184607B05DF8044B704710B47F
:10BA600087B001900091019B009A53E8004FA4EB2E
:10BA7000020043E8000191F0000FF6D10594049014
:10BA80000391049B184607B05DF8044B704710B54E
:10BA900086B00590049103920293059B002B01D17F
:10BAA0000E2342E0039B002B01D10E233DE0059BBA
:10BAB0001B68002B01D1082337E0029B002B01D12A
:10BAC000092332E0059B5B685A68029BB3FBF2F1E5
:10BAD00001FB02F29B1A002B01D0092325E00498F8
:10BAE00000F07BF80346002B01D110231DE0039BDF
:10BAF000184600F072F80346002B01D1102314E021
:10BB0000029A0499059800F04EF80346002B01D1E3
:10BB100010230AE0059B1B68DC68089B0093029BCE
:10BB2000039A04990598A0470346184606B010BD2D
:10BB300010B584B00390029101920093039B002BF7
:10BB400001D10E232CE0039B1B68002B01D108239D
:10BB500026E0019B002B01D1092321E002990398E3
:10BB600000F048F80346002B01D1102318E0039B96
:10BB70005B681B68019A02FB03F31A46029903985B
:10BB800000F011F80346002B01D1102308E0039BBD
:10BB90001B681C69009B019A02990398A047034601
:10BBA000184604B010BD84B0039002910192039B2B
:10BBB000DB68029A9A4209D3029A019B13445A1EE7
:10BBC000039B1B699A4201D8012300E0002303F084
:10BBD0000103DBB2184604B0704782B00190019BAC
:10BBE00003F00303002B0CBF01230023DBB2184634
:10BBF00002B0704782B001900091019B5B681B68A6
:10BC00005A1E009B1340002B0CBF01230023DBB204
:10BC1000184602B0704729DF704700BF184628DF7A
:10BC2000704700BF184600B589B001900091019B94
:10BC30001B689B68002B35D002AB00221A605A604B
:10BC40009A60DA601A615A61009B0393019B9B68BA
:10BC50000793019B1B79002B02D0012B0DD01AE01A
:10BC600001238DF80830019B1B690493019BDB685D
:10BC70000593019B5B6906930DE002238DF8083064
:10BC8000019BDB684FF4805202FB03F30493019B9A
:10BC90005B69069300BF019B1B689B6802AA104664
:10BCA000984700E000BF09B05DF804FB00B587B01D
:10BCB0000190019B5A69019B9B69D31AB3F5805F80
:10BCC00028BF4FF4805305930422059BB3FBF2F386
:10BCD000012B38BF01230593019B1A69019B9B69C6
:10BCE00013440493019BDB681A46019B9B69134430
:10BCF0000393059A03990498FFF78DFF03461846AE
:10BD000007B05DF804FB00B583B00190019BDA68D1
:10BD1000019B1B6913441846FFF781FF0346184631
:10BD200003B05DF804FB000008B5034B0349184657
:10BD3000FFF726FD00BF08BD582500208025002004
:10BD400008B5084B08491846FFF701FD0346074AA6
:10BD50001360064B1B68002B14BF01230023DBB2CA
:10BD6000184608BD58250020802500207C2500208D
:10BD700000B583B02A4B1B7A002B0BD1FFF7E0FFF5
:10BD8000034683F00103DBB2002B03D0244B0022D7
:10BD90005A6042E0224B02221A72224B1B681B7926
:10BDA000002B02D0012B07D00DE01E4B1B6818465C
:10BDB000FFF77CFF019009E01A4B1B681846FFF75C
:10BDC000A2FF019002E00323019300BF019B002B1F
:10BDD00003D0019B112B0CD00FE0114B1B7C83F087
:10BDE0000103DBB2002B17D00021022000F06EF817
:10BDF00012E00B4B01221A720FE00A4B1B68032161
:10BE00001846FFF710FF064B00221A72044B00225F
:10BE10005A60FFF789FF00E000BF03B05DF804FB44
:10BE2000682500207C25002084B001901B4B002257
:10BE3000DA60019B1B79002B02D0012B19D028E07E
:10BE4000019B5A69019B9B69D31AB3F5805F28BF98
:10BE50004FF480530393019B9A69039B1A44019BFF
:10BE60009A61019B9A69019B5B699A420ED10123F9
:10BE700010E0019B1B695A1C019B1A61019B1A6906
:10BE8000019B5B699A4203D1012303E000BF00E0FC
:10BE900000BF0023184604B0704700BF682500208B
:10BEA00082B00190084BDB680133074AD360064B30
:10BEB000DB68082B04D9044B0022DA60012300E080
:10BEC0000023184602B070476825002000B585B0F1
:10BED00001900091019B022B02D0019B032B48D1C2
:10BEE000274B1B7A022B05D0022B35DC002B42D0CE
:10BEF000012B31E000238DF80F30019B022B03D082
:10BF0000019B032B09D011E01E4B1B681846FFF75D
:10BF10008BFF03468DF80F3008E01A4B1B6818465C
:10BF2000FFF7BEFF03468DF80F3000BF9DF80F30BE
:10BF3000002B10D0124B00221A72124B1A68019B70
:10BF4000022B01D1002300E00D2319461046FFF714
:10BF50006AFEFFF7E9FE00BF094B5B7C83F001033B
:10BF6000DBB2002B02D0FFF703FF05E0FCF7B2FEC7
:10BF700002E000BF00E000BF05B05DF804FB00BFB9
:10BF8000682500207C25002082B0034600918DF8B2
:10BF90000730064B01225A74044B1B7A002B0CBF4E
:10BFA00001230023DBB2184602B070476825002049
:10BFB00000B583B0034600918DF807309DF8073037
:10BFC000012B03D09DF80730032B0DD1084B002225
:10BFD0005A749DF80730012B0CBF01230023DAB2FD
:10BFE000034B1A74FFF7C4FE00BF03B05DF804FBF7
:10BFF00068250020BFF34F8F00BF064BDB6803F4BA
:10C00000E0620449044B1343CB60BFF34F8F00BF82
:10C0100000BFFDE700ED00E00400FA0582B00190EA
:10C02000019B5B68184602B0704700B585B001906F
:10C0300001210198FFF784FC0390BFF35F8F00BFDD
:10C04000039B002B0CBF01230023DBB2184605B075
:10C050005DF804FB82B00190BFF35F8F00BF019BCE
:10C0600000221A6000BF02B0704733DF704700BF84
:10C0700018464FF080430122C3F80025BFF34F8FCD
:10C0800000BF20BFFDE7000000B583B00FE01848F7
:10C09000FFF7C4FF0090009B1B68164A12781046F9
:10C0A00098470346002B1FD0114800F06FF8104846
:10C0B000FFF7B4FF0346002BE9D10E4B1B78032B8F
:10C0C00003D00C4B1B78022B01D1FFF793FFFCF739
:10C0D0001DFE0346002B04D0FFF7C7FF019020BFD1
:10C0E000FDE7FFF7C6FF00E000BF03B05DF804FB0B
:10C0F000902500208425002000B583B003468DF8EC
:10C1000007301348FFF791FF034683F00103DBB2CA
:10C11000002B18D19DF80730042B0ED00D4B1B7847
:10C12000002B03D00A48FFF795FF0DE00A4A9DF85F
:10C1300007301370074B01221A70FFF7A5FF044860
:10C14000FFF788FF00E000BF03B05DF804FB00BF0D
:10C15000882500208C2500208425002082B00190B5
:10C160000091019B009A1A60019B1B681A68019B51
:10C170005A60019B5A68019B1B685B689A4202D116
:10C18000019B00225A6000BF02B0704782B001904C
:10C19000019B5B68002B14D0019B5B681A46019BD6
:10C1A0001B689B6813441A46019B5A60019B5A689E
:10C1B000019B1B685B689A4204D1019B00225A6074
:10C1C00000E000BF02B0704700B585B0019000915B
:10C1D000019B5B6803930FE0019B9B68039A1268C5
:10C1E000009910469847034683F00103DBB2002B09
:10C1F00007D1039B1B680393039B1B68002BEBD1A8
:10C2000000E000BF039B1A68009B1A60039B009A22
:10C210001A6000BF05B05DF804FB84B00190019B7B
:10C220005B681B680393019B5B681B68002B06D04F
:10C23000019B5B681A68019B5B6812681A60039B2C
:10C24000184604B0704782B00190019B5B681B6880
:10C25000184602B0704784B00190009100238DF819
:10C260000F30019B5B6802930FE0029B1B68009AF2
:10C270009A4207D1009B1A68029B1A6001238DF82D
:10C280000F3006E0029B1B680293029B1B68002B89
:10C29000EBD19DF80F30184604B0704782B00346CA
:10C2A0008DF807309DF90730002B13DB9DF8073020
:10C2B00003F01F0209499DF907305B09012000FACC
:10C2C00002F2203341F82320BFF34F8F00BFBFF3AA
:10C2D0006F8F00BF00BF02B0704700BF00E100E0F9
:10C2E00042DF704700BF184643DF704700BF184663
:10C2F00044DF704700BF184682B003468DF8073010
:10C300004FF08043D3F80C3403F001129DF807304E
:10C3100043F480339A420CBF01230023DBB218465A
:10C3200002B0704708B50120FFF7E6FF0346184644
:10C3300008BD0000044BD3F80034002B14BF0123C8
:10C340000023DBB2184670470000014008B5FFF734
:10C35000F1FF034683F00103DBB2002B04D000F0B1
:10C3600078FB024B00229A7000BF08BD9825002080
:10C3700008B5FCF7CBFC0346002B02D0FFF7B0FF5B
:10C3800001E000F07AFB08BD08B5FCF7BFFC0346EE
:10C39000002B05D0FFF7A8FF044B00225A7004E0E1
:10C3A00000F078FB014B00225A7008BD9825002050
:10C3B00000B583B000230193184B1B78002B02D0EB
:10C3C000852301931CE0154B00229A60134B002239
:10C3D0005A60124B00221A61104B0022DA6010489A
:10C3E00000F008FB0190FCF791FC034683F0010389
:10C3F000DBB2002B01D000F017FB084B01221A70B2
:10C40000FFF798FF0346002B02D0044B01229A70DD
:10C41000019B184603B05DF804FB00BF982500207F
:10C42000A5C6020084B001900091019B1B68039394
:10C4300006E0039A009B9A420DD0039B1B6803936E
:10C44000039B002BF5D1019B1A68009B1A60019B8E
:10C45000009A1A6000E000BF04B0704784B00190F9
:10C46000019B1B680393039B002B03D0039B1A685B
:10C47000019B1A60039B184604B0704700B585B055
:10C480000190214B9B78DBB2002B19D0019B002B34
:10C4900003D0019B5B680120984700238DF80F3083
:10C4A0000DF10F031846FDF7D7F9174BDB68013381
:10C4B000154AD3609DF80F301846FDF7D7F91EE0F6
:10C4C00000238DF80E300DF10E031846FDF7C4F968
:10C4D000019B002B03D001990C48FFF7A3FF0A4BE7
:10C4E000DB68002B01D100F0A7FA074BDB680133B2
:10C4F000054AD3609DF80E301846FDF7B7F900BF26
:10C5000005B05DF804FB00BF98250020A825002099
:10C5100000B583B000238DF807300DF107031846EE
:10C52000FDF79AF9094BDB68013B084AD360074BDA
:10C53000DB68002B01D1FFF709FF9DF80730184693
:10C54000FDF794F900BF03B05DF804FB98250020C7
:10C5500000B585B00190214B5B78DBB2002B19D080
:10C56000019B002B03D0019B5B68002098470023B0
:10C570008DF80F300DF10F031846FDF76DF9174BCD
:10C580005B680133154A53609DF80F301846FDF77C
:10C590006DF91EE000238DF80E300DF10E031846E4
:10C5A000FDF75AF9019B002B03D001990C48FFF7C6
:10C5B00039FF0A4B5B68002B01D1FFF7D9FE074B0F
:10C5C0005B680133054A53609DF80E301846FDF74D
:10C5D0004DF900BF05B05DF804FB00BF98250020B1
:10C5E000A025002000B583B000238DF807300DF1A1
:10C5F00007031846FDF730F9094B5B68013B084A11
:10C600005360074B5B68002B01D1FFF7BDFE9DF81F
:10C6100007301846FDF72AF900BF03B05DF804FBA8
:10C620009825002000B583B0FCF770FB0346002B73
:10C630000AD001AB1846FFF75BFE019B002B14BF2D
:10C6400001230023DBB202E0FFF76CFE034618462D
:10C6500003B05DF804FB000000B585B003468DF81B
:10C6600007309DF80730002B02D10C4B039301E0FB
:10C670000B4B03930398FFF7F1FE0290029B002BF4
:10C6800006D0029B5B689DF8072010469847F1E7AB
:10C6900000BF00BF05B05DF804FB00BFA02500206F
:10C6A000A825002000B583B003468DF807309DF81B
:10C6B0000730002B05D10A4B01225A700020FFF7EA
:10C6C000CBFF9DF80730012B05D1054B01229A7055
:10C6D0000120FFF7C1FF00BF03B05DF804FB00BFFE
:10C6E0009825002000B583B001900091019B002B9C
:10C6F00005D1054B01225A700020FFF7ADFF00BFA6
:10C7000003B05DF804FB00BF9825002000B585B09C
:10C71000034600918DF807309DF80730032B29D090
:10C72000032B2CDC002B02D0012B04D027E00020AF
:10C73000FFF7B4FD24E000238DF80F300DF10F0357
:10C740001846FDF789F8104B1B7883F00103DBB224
:10C75000002B01D0FFF72CFE0B4BDB6801330A4A9C
:10C76000D360094B01229A709DF80F301846FDF7EF
:10C770007DF805E000F058F9FFF7CAFE00E000BFC1
:10C7800000BF05B05DF804FB9825002082B0034689
:10C790008DF807309DF90730002B0CDB9DF8073032
:10C7A00003F01F0205499DF907305B09012000FADB
:10C7B00002F241F8232000BF02B0704700E100E020
:10C7C00082B0034600918DF807309DF90730002BA9
:10C7D0000ADB009BDAB20C499DF907305201D2B254
:10C7E0000B4483F800230BE0009BDAB207499DF865
:10C7F000073003F00F03043B5201D2B20B441A7608
:10C8000000BF02B0704700BF00E100E000ED00E0B3
:10C8100082B00190019B1B0B5BB2184602B07047BF
:10C8200000B583B003460A468DF8073013468DF8ED
:10C8300006309DF806209DF9073011461846FFF78F
:10C84000BFFF00BF03B05DF804FB00B583B0034633
:10C850008DF807309DF907301846FFF797FF00BFA6
:10C8600003B05DF804FB000082B003468DF807308A
:10C870000F4A9DF90730002B00DA1F335B115BB2C2
:10C8800052F823209DF90730594203F01F0301F0AD
:10C890001F0158BF4B425BB222FA03F303F00103BE
:10C8A000002B14BF01230023DBB2184602B07047EF
:10C8B00000E100E082B001904FF08042019BC2F89D
:10C8C000043300BF02B0704782B001904FF0804245
:10C8D000019BC2F8083300BF02B0704782B0034624
:10C8E0008DF807309DF8073003F1804301221A606C
:10C8F00000BF02B0704784B00346ADF80630BDF803
:10C90000063003F1804300221A60BDF8063003F1BF
:10C9100080431B680393039B00BF04B0704782B041
:10C920000346ADF80630BDF8063003F180431B68BE
:10C93000002B14BF01230023DBB2184602B070475E
:10C9400082B001904FF08042019BC2F8183500BFC1
:10C9500002B070474FF08043D3F818341B0C03F03B
:10C960000103002B14BF01230023DBB218467047DC
:10C9700082B003468DF807304FF08043D3F80C3473
:10C9800003F001129DF8073043F480339A420CBF44
:10C9900001230023DBB2184602B0704700B583B014
:10C9A00006238DF807304FF08040FFF731FF034634
:10C9B0001846FFF759FF034683F00103DBB2002B53
:10C9C00013D04FF08040FFF723FF03461A469DF82F
:10C9D000073019461046FFF723FF4FF08040FFF75E
:10C9E00017FF03461846FFF730FF00BF03B05DF89E
:10C9F00004FB000084B0019000230393094B1B79D2
:10CA0000002B02D08523039308E0064A019B1360A4
:10CA1000044B01221A71034B00225A71039B1846E2
:10CA200004B07047AC25002008B5FFF7B7FF012020
:10CA3000FFF786FF00BF08BD08B54FF48270FFF70F
:10CA40005AFF0220FFF736FF0820FFF747FF00BF1D
:10CA500008BD08B50220FFF737FF4FF48270FFF7DB
:10CA60004AFF0C20FFF73AFF00BFFFF773FF0346B2
:10CA7000002BFAD100BF00BF08BD08B54FF480708D
:10CA8000FFF739FF0120FFF715FF0020FFF726FF12
:10CA900000BF08BD08B50120FFF716FF4FF48070F6
:10CAA000FFF729FF0420FFF719FF00BF0120FFF760
:10CAB0005FFF0346002BF9D1024B00225A7100BFE1
:10CAC00008BD00BFAC25002008B54FF48070FFF70B
:10CAD00026FF0346002B14D04FF48070FFF70BFFA6
